{
  "contractName": "MatchingMarketV1",
  "abi": [
    {
      "constant": true,
      "inputs": [],
      "name": "matchingEnabled",
      "outputs": [
        {
          "name": "",
          "type": "bool"
        }
      ],
      "payable": false,
      "stateMutability": "view",
      "type": "function"
    },
    {
      "constant": false,
      "inputs": [],
      "name": "stop",
      "outputs": [],
      "payable": false,
      "stateMutability": "nonpayable",
      "type": "function"
    },
    {
      "constant": false,
      "inputs": [
        {
          "name": "owner_",
          "type": "address"
        }
      ],
      "name": "setOwner",
      "outputs": [],
      "payable": false,
      "stateMutability": "nonpayable",
      "type": "function"
    },
    {
      "constant": true,
      "inputs": [],
      "name": "last_offer_id",
      "outputs": [
        {
          "name": "",
          "type": "uint256"
        }
      ],
      "payable": false,
      "stateMutability": "view",
      "type": "function"
    },
    {
      "constant": true,
      "inputs": [
        {
          "name": "id",
          "type": "uint256"
        }
      ],
      "name": "getOffer",
      "outputs": [
        {
          "name": "",
          "type": "uint256"
        },
        {
          "name": "",
          "type": "address"
        },
        {
          "name": "",
          "type": "uint256"
        },
        {
          "name": "",
          "type": "address"
        }
      ],
      "payable": false,
      "stateMutability": "view",
      "type": "function"
    },
    {
      "constant": true,
      "inputs": [],
      "name": "getTime",
      "outputs": [
        {
          "name": "",
          "type": "uint64"
        }
      ],
      "payable": false,
      "stateMutability": "view",
      "type": "function"
    },
    {
      "constant": true,
      "inputs": [],
      "name": "close_time",
      "outputs": [
        {
          "name": "",
          "type": "uint64"
        }
      ],
      "payable": false,
      "stateMutability": "view",
      "type": "function"
    },
    {
      "constant": true,
      "inputs": [
        {
          "name": "",
          "type": "address"
        },
        {
          "name": "",
          "type": "address"
        }
      ],
      "name": "_span",
      "outputs": [
        {
          "name": "",
          "type": "uint256"
        }
      ],
      "payable": false,
      "stateMutability": "view",
      "type": "function"
    },
    {
      "constant": true,
      "inputs": [
        {
          "name": "",
          "type": "address"
        },
        {
          "name": "",
          "type": "address"
        }
      ],
      "name": "_best",
      "outputs": [
        {
          "name": "",
          "type": "uint256"
        }
      ],
      "payable": false,
      "stateMutability": "view",
      "type": "function"
    },
    {
      "constant": true,
      "inputs": [],
      "name": "stopped",
      "outputs": [
        {
          "name": "",
          "type": "bool"
        }
      ],
      "payable": false,
      "stateMutability": "view",
      "type": "function"
    },
    {
      "constant": false,
      "inputs": [
        {
          "name": "id_",
          "type": "bytes32"
        }
      ],
      "name": "bump",
      "outputs": [],
      "payable": false,
      "stateMutability": "nonpayable",
      "type": "function"
    },
    {
      "constant": false,
      "inputs": [
        {
          "name": "authority_",
          "type": "address"
        }
      ],
      "name": "setAuthority",
      "outputs": [],
      "payable": false,
      "stateMutability": "nonpayable",
      "type": "function"
    },
    {
      "constant": true,
      "inputs": [
        {
          "name": "id",
          "type": "uint256"
        }
      ],
      "name": "isActive",
      "outputs": [
        {
          "name": "active",
          "type": "bool"
        }
      ],
      "payable": false,
      "stateMutability": "view",
      "type": "function"
    },
    {
      "constant": true,
      "inputs": [
        {
          "name": "",
          "type": "uint256"
        }
      ],
      "name": "offers",
      "outputs": [
        {
          "name": "pay_amt",
          "type": "uint256"
        },
        {
          "name": "pay_gem",
          "type": "address"
        },
        {
          "name": "buy_amt",
          "type": "uint256"
        },
        {
          "name": "buy_gem",
          "type": "address"
        },
        {
          "name": "owner",
          "type": "address"
        },
        {
          "name": "timestamp",
          "type": "uint64"
        }
      ],
      "payable": false,
      "stateMutability": "view",
      "type": "function"
    },
    {
      "constant": true,
      "inputs": [],
      "name": "owner",
      "outputs": [
        {
          "name": "",
          "type": "address"
        }
      ],
      "payable": false,
      "stateMutability": "view",
      "type": "function"
    },
    {
      "constant": true,
      "inputs": [
        {
          "name": "",
          "type": "address"
        }
      ],
      "name": "_dust",
      "outputs": [
        {
          "name": "",
          "type": "uint256"
        }
      ],
      "payable": false,
      "stateMutability": "view",
      "type": "function"
    },
    {
      "constant": true,
      "inputs": [
        {
          "name": "",
          "type": "bytes32"
        }
      ],
      "name": "_menu",
      "outputs": [
        {
          "name": "",
          "type": "bool"
        }
      ],
      "payable": false,
      "stateMutability": "view",
      "type": "function"
    },
    {
      "constant": true,
      "inputs": [
        {
          "name": "",
          "type": "uint256"
        }
      ],
      "name": "_near",
      "outputs": [
        {
          "name": "",
          "type": "uint256"
        }
      ],
      "payable": false,
      "stateMutability": "view",
      "type": "function"
    },
    {
      "constant": true,
      "inputs": [],
      "name": "authority",
      "outputs": [
        {
          "name": "",
          "type": "address"
        }
      ],
      "payable": false,
      "stateMutability": "view",
      "type": "function"
    },
    {
      "constant": true,
      "inputs": [],
      "name": "isClosed",
      "outputs": [
        {
          "name": "closed",
          "type": "bool"
        }
      ],
      "payable": false,
      "stateMutability": "view",
      "type": "function"
    },
    {
      "constant": true,
      "inputs": [
        {
          "name": "",
          "type": "uint256"
        }
      ],
      "name": "_rank",
      "outputs": [
        {
          "name": "next",
          "type": "uint256"
        },
        {
          "name": "prev",
          "type": "uint256"
        },
        {
          "name": "delb",
          "type": "uint256"
        }
      ],
      "payable": false,
      "stateMutability": "view",
      "type": "function"
    },
    {
      "constant": true,
      "inputs": [
        {
          "name": "id",
          "type": "uint256"
        }
      ],
      "name": "getOwner",
      "outputs": [
        {
          "name": "owner",
          "type": "address"
        }
      ],
      "payable": false,
      "stateMutability": "view",
      "type": "function"
    },
    {
      "constant": true,
      "inputs": [],
      "name": "buyEnabled",
      "outputs": [
        {
          "name": "",
          "type": "bool"
        }
      ],
      "payable": false,
      "stateMutability": "view",
      "type": "function"
    },
    {
      "inputs": [
        {
          "name": "close_time",
          "type": "uint64"
        }
      ],
      "payable": false,
      "stateMutability": "nonpayable",
      "type": "constructor"
    },
    {
      "anonymous": true,
      "inputs": [
        {
          "indexed": true,
          "name": "sig",
          "type": "bytes4"
        },
        {
          "indexed": true,
          "name": "guy",
          "type": "address"
        },
        {
          "indexed": true,
          "name": "foo",
          "type": "bytes32"
        },
        {
          "indexed": true,
          "name": "bar",
          "type": "bytes32"
        },
        {
          "indexed": false,
          "name": "wad",
          "type": "uint256"
        },
        {
          "indexed": false,
          "name": "fax",
          "type": "bytes"
        }
      ],
      "name": "LogNote",
      "type": "event"
    },
    {
      "anonymous": false,
      "inputs": [
        {
          "indexed": false,
          "name": "id",
          "type": "uint256"
        }
      ],
      "name": "LogItemUpdate",
      "type": "event"
    },
    {
      "anonymous": false,
      "inputs": [
        {
          "indexed": false,
          "name": "pay_amt",
          "type": "uint256"
        },
        {
          "indexed": true,
          "name": "pay_gem",
          "type": "address"
        },
        {
          "indexed": false,
          "name": "buy_amt",
          "type": "uint256"
        },
        {
          "indexed": true,
          "name": "buy_gem",
          "type": "address"
        }
      ],
      "name": "LogTrade",
      "type": "event"
    },
    {
      "anonymous": false,
      "inputs": [
        {
          "indexed": true,
          "name": "id",
          "type": "bytes32"
        },
        {
          "indexed": true,
          "name": "pair",
          "type": "bytes32"
        },
        {
          "indexed": true,
          "name": "maker",
          "type": "address"
        },
        {
          "indexed": false,
          "name": "pay_gem",
          "type": "address"
        },
        {
          "indexed": false,
          "name": "buy_gem",
          "type": "address"
        },
        {
          "indexed": false,
          "name": "pay_amt",
          "type": "uint128"
        },
        {
          "indexed": false,
          "name": "buy_amt",
          "type": "uint128"
        },
        {
          "indexed": false,
          "name": "timestamp",
          "type": "uint64"
        }
      ],
      "name": "LogMake",
      "type": "event"
    },
    {
      "anonymous": false,
      "inputs": [
        {
          "indexed": true,
          "name": "id",
          "type": "bytes32"
        },
        {
          "indexed": true,
          "name": "pair",
          "type": "bytes32"
        },
        {
          "indexed": true,
          "name": "maker",
          "type": "address"
        },
        {
          "indexed": false,
          "name": "pay_gem",
          "type": "address"
        },
        {
          "indexed": false,
          "name": "buy_gem",
          "type": "address"
        },
        {
          "indexed": false,
          "name": "pay_amt",
          "type": "uint128"
        },
        {
          "indexed": false,
          "name": "buy_amt",
          "type": "uint128"
        },
        {
          "indexed": false,
          "name": "timestamp",
          "type": "uint64"
        }
      ],
      "name": "LogBump",
      "type": "event"
    },
    {
      "anonymous": false,
      "inputs": [
        {
          "indexed": false,
          "name": "id",
          "type": "bytes32"
        },
        {
          "indexed": true,
          "name": "pair",
          "type": "bytes32"
        },
        {
          "indexed": true,
          "name": "maker",
          "type": "address"
        },
        {
          "indexed": false,
          "name": "pay_gem",
          "type": "address"
        },
        {
          "indexed": false,
          "name": "buy_gem",
          "type": "address"
        },
        {
          "indexed": true,
          "name": "taker",
          "type": "address"
        },
        {
          "indexed": false,
          "name": "take_amt",
          "type": "uint128"
        },
        {
          "indexed": false,
          "name": "give_amt",
          "type": "uint128"
        },
        {
          "indexed": false,
          "name": "timestamp",
          "type": "uint64"
        }
      ],
      "name": "LogTake",
      "type": "event"
    },
    {
      "anonymous": false,
      "inputs": [
        {
          "indexed": true,
          "name": "id",
          "type": "bytes32"
        },
        {
          "indexed": true,
          "name": "pair",
          "type": "bytes32"
        },
        {
          "indexed": true,
          "name": "maker",
          "type": "address"
        },
        {
          "indexed": false,
          "name": "pay_gem",
          "type": "address"
        },
        {
          "indexed": false,
          "name": "buy_gem",
          "type": "address"
        },
        {
          "indexed": false,
          "name": "pay_amt",
          "type": "uint128"
        },
        {
          "indexed": false,
          "name": "buy_amt",
          "type": "uint128"
        },
        {
          "indexed": false,
          "name": "timestamp",
          "type": "uint64"
        }
      ],
      "name": "LogKill",
      "type": "event"
    },
    {
      "anonymous": false,
      "inputs": [
        {
          "indexed": true,
          "name": "authority",
          "type": "address"
        }
      ],
      "name": "LogSetAuthority",
      "type": "event"
    },
    {
      "anonymous": false,
      "inputs": [
        {
          "indexed": true,
          "name": "owner",
          "type": "address"
        }
      ],
      "name": "LogSetOwner",
      "type": "event"
    },
    {
      "anonymous": false,
      "inputs": [
        {
          "indexed": false,
          "name": "isEnabled",
          "type": "bool"
        }
      ],
      "name": "LogBuyEnabled",
      "type": "event"
    },
    {
      "anonymous": false,
      "inputs": [
        {
          "indexed": false,
          "name": "pay_gem",
          "type": "address"
        },
        {
          "indexed": false,
          "name": "min_amount",
          "type": "uint256"
        }
      ],
      "name": "LogMinSell",
      "type": "event"
    },
    {
      "anonymous": false,
      "inputs": [
        {
          "indexed": false,
          "name": "isEnabled",
          "type": "bool"
        }
      ],
      "name": "LogMatchingEnabled",
      "type": "event"
    },
    {
      "anonymous": false,
      "inputs": [
        {
          "indexed": false,
          "name": "id",
          "type": "uint256"
        }
      ],
      "name": "LogUnsortedOffer",
      "type": "event"
    },
    {
      "anonymous": false,
      "inputs": [
        {
          "indexed": false,
          "name": "id",
          "type": "uint256"
        }
      ],
      "name": "LogSortedOffer",
      "type": "event"
    },
    {
      "anonymous": false,
      "inputs": [
        {
          "indexed": false,
          "name": "baseToken",
          "type": "address"
        },
        {
          "indexed": false,
          "name": "quoteToken",
          "type": "address"
        }
      ],
      "name": "LogAddTokenPairWhitelist",
      "type": "event"
    },
    {
      "anonymous": false,
      "inputs": [
        {
          "indexed": false,
          "name": "baseToken",
          "type": "address"
        },
        {
          "indexed": false,
          "name": "quoteToken",
          "type": "address"
        }
      ],
      "name": "LogRemTokenPairWhitelist",
      "type": "event"
    },
    {
      "anonymous": false,
      "inputs": [
        {
          "indexed": false,
          "name": "keeper",
          "type": "address"
        },
        {
          "indexed": false,
          "name": "id",
          "type": "uint256"
        }
      ],
      "name": "LogInsert",
      "type": "event"
    },
    {
      "anonymous": false,
      "inputs": [
        {
          "indexed": false,
          "name": "keeper",
          "type": "address"
        },
        {
          "indexed": false,
          "name": "id",
          "type": "uint256"
        }
      ],
      "name": "LogDelete",
      "type": "event"
    },
    {
      "constant": false,
      "inputs": [
        {
          "name": "pay_gem",
          "type": "address"
        },
        {
          "name": "buy_gem",
          "type": "address"
        },
        {
          "name": "pay_amt",
          "type": "uint128"
        },
        {
          "name": "buy_amt",
          "type": "uint128"
        }
      ],
      "name": "make",
      "outputs": [
        {
          "name": "",
          "type": "bytes32"
        }
      ],
      "payable": false,
      "stateMutability": "nonpayable",
      "type": "function"
    },
    {
      "constant": false,
      "inputs": [
        {
          "name": "id",
          "type": "bytes32"
        },
        {
          "name": "maxTakeAmount",
          "type": "uint128"
        }
      ],
      "name": "take",
      "outputs": [],
      "payable": false,
      "stateMutability": "nonpayable",
      "type": "function"
    },
    {
      "constant": false,
      "inputs": [
        {
          "name": "id",
          "type": "bytes32"
        }
      ],
      "name": "kill",
      "outputs": [],
      "payable": false,
      "stateMutability": "nonpayable",
      "type": "function"
    },
    {
      "constant": false,
      "inputs": [
        {
          "name": "pay_amt",
          "type": "uint256"
        },
        {
          "name": "pay_gem",
          "type": "address"
        },
        {
          "name": "buy_amt",
          "type": "uint256"
        },
        {
          "name": "buy_gem",
          "type": "address"
        },
        {
          "name": "pos",
          "type": "uint256"
        }
      ],
      "name": "offer",
      "outputs": [
        {
          "name": "",
          "type": "uint256"
        }
      ],
      "payable": false,
      "stateMutability": "nonpayable",
      "type": "function"
    },
    {
      "constant": false,
      "inputs": [
        {
          "name": "pay_amt",
          "type": "uint256"
        },
        {
          "name": "pay_gem",
          "type": "address"
        },
        {
          "name": "buy_amt",
          "type": "uint256"
        },
        {
          "name": "buy_gem",
          "type": "address"
        }
      ],
      "name": "offer",
      "outputs": [
        {
          "name": "",
          "type": "uint256"
        }
      ],
      "payable": false,
      "stateMutability": "nonpayable",
      "type": "function"
    },
    {
      "constant": false,
      "inputs": [
        {
          "name": "pay_amt",
          "type": "uint256"
        },
        {
          "name": "pay_gem",
          "type": "address"
        },
        {
          "name": "buy_amt",
          "type": "uint256"
        },
        {
          "name": "buy_gem",
          "type": "address"
        },
        {
          "name": "pos",
          "type": "uint256"
        },
        {
          "name": "rounding",
          "type": "bool"
        }
      ],
      "name": "offer",
      "outputs": [
        {
          "name": "",
          "type": "uint256"
        }
      ],
      "payable": false,
      "stateMutability": "nonpayable",
      "type": "function"
    },
    {
      "constant": false,
      "inputs": [
        {
          "name": "id",
          "type": "uint256"
        },
        {
          "name": "amount",
          "type": "uint256"
        }
      ],
      "name": "buy",
      "outputs": [
        {
          "name": "",
          "type": "bool"
        }
      ],
      "payable": false,
      "stateMutability": "nonpayable",
      "type": "function"
    },
    {
      "constant": false,
      "inputs": [
        {
          "name": "id",
          "type": "uint256"
        }
      ],
      "name": "cancel",
      "outputs": [
        {
          "name": "success",
          "type": "bool"
        }
      ],
      "payable": false,
      "stateMutability": "nonpayable",
      "type": "function"
    },
    {
      "constant": false,
      "inputs": [
        {
          "name": "id",
          "type": "uint256"
        },
        {
          "name": "pos",
          "type": "uint256"
        }
      ],
      "name": "insert",
      "outputs": [
        {
          "name": "",
          "type": "bool"
        }
      ],
      "payable": false,
      "stateMutability": "nonpayable",
      "type": "function"
    },
    {
      "constant": false,
      "inputs": [
        {
          "name": "id",
          "type": "uint256"
        }
      ],
      "name": "del_rank",
      "outputs": [
        {
          "name": "",
          "type": "bool"
        }
      ],
      "payable": false,
      "stateMutability": "nonpayable",
      "type": "function"
    },
    {
      "constant": false,
      "inputs": [
        {
          "name": "baseToken",
          "type": "address"
        },
        {
          "name": "quoteToken",
          "type": "address"
        }
      ],
      "name": "addTokenPairWhitelist",
      "outputs": [
        {
          "name": "",
          "type": "bool"
        }
      ],
      "payable": false,
      "stateMutability": "nonpayable",
      "type": "function"
    },
    {
      "constant": false,
      "inputs": [
        {
          "name": "baseToken",
          "type": "address"
        },
        {
          "name": "quoteToken",
          "type": "address"
        }
      ],
      "name": "remTokenPairWhitelist",
      "outputs": [
        {
          "name": "",
          "type": "bool"
        }
      ],
      "payable": false,
      "stateMutability": "nonpayable",
      "type": "function"
    },
    {
      "constant": true,
      "inputs": [
        {
          "name": "baseToken",
          "type": "address"
        },
        {
          "name": "quoteToken",
          "type": "address"
        }
      ],
      "name": "isTokenPairWhitelisted",
      "outputs": [
        {
          "name": "",
          "type": "bool"
        }
      ],
      "payable": false,
      "stateMutability": "view",
      "type": "function"
    },
    {
      "constant": false,
      "inputs": [
        {
          "name": "pay_gem",
          "type": "address"
        },
        {
          "name": "dust",
          "type": "uint256"
        }
      ],
      "name": "setMinSell",
      "outputs": [
        {
          "name": "",
          "type": "bool"
        }
      ],
      "payable": false,
      "stateMutability": "nonpayable",
      "type": "function"
    },
    {
      "constant": true,
      "inputs": [
        {
          "name": "pay_gem",
          "type": "address"
        }
      ],
      "name": "getMinSell",
      "outputs": [
        {
          "name": "",
          "type": "uint256"
        }
      ],
      "payable": false,
      "stateMutability": "view",
      "type": "function"
    },
    {
      "constant": false,
      "inputs": [
        {
          "name": "buyEnabled_",
          "type": "bool"
        }
      ],
      "name": "setBuyEnabled",
      "outputs": [
        {
          "name": "",
          "type": "bool"
        }
      ],
      "payable": false,
      "stateMutability": "nonpayable",
      "type": "function"
    },
    {
      "constant": false,
      "inputs": [
        {
          "name": "matchingEnabled_",
          "type": "bool"
        }
      ],
      "name": "setMatchingEnabled",
      "outputs": [
        {
          "name": "",
          "type": "bool"
        }
      ],
      "payable": false,
      "stateMutability": "nonpayable",
      "type": "function"
    },
    {
      "constant": true,
      "inputs": [
        {
          "name": "sell_gem",
          "type": "address"
        },
        {
          "name": "buy_gem",
          "type": "address"
        }
      ],
      "name": "getBestOffer",
      "outputs": [
        {
          "name": "",
          "type": "uint256"
        }
      ],
      "payable": false,
      "stateMutability": "view",
      "type": "function"
    },
    {
      "constant": true,
      "inputs": [
        {
          "name": "id",
          "type": "uint256"
        }
      ],
      "name": "getWorseOffer",
      "outputs": [
        {
          "name": "",
          "type": "uint256"
        }
      ],
      "payable": false,
      "stateMutability": "view",
      "type": "function"
    },
    {
      "constant": true,
      "inputs": [
        {
          "name": "id",
          "type": "uint256"
        }
      ],
      "name": "getBetterOffer",
      "outputs": [
        {
          "name": "",
          "type": "uint256"
        }
      ],
      "payable": false,
      "stateMutability": "view",
      "type": "function"
    },
    {
      "constant": true,
      "inputs": [
        {
          "name": "sell_gem",
          "type": "address"
        },
        {
          "name": "buy_gem",
          "type": "address"
        }
      ],
      "name": "getOfferCount",
      "outputs": [
        {
          "name": "",
          "type": "uint256"
        }
      ],
      "payable": false,
      "stateMutability": "view",
      "type": "function"
    },
    {
      "constant": true,
      "inputs": [],
      "name": "getFirstUnsortedOffer",
      "outputs": [
        {
          "name": "",
          "type": "uint256"
        }
      ],
      "payable": false,
      "stateMutability": "view",
      "type": "function"
    },
    {
      "constant": true,
      "inputs": [
        {
          "name": "id",
          "type": "uint256"
        }
      ],
      "name": "getNextUnsortedOffer",
      "outputs": [
        {
          "name": "",
          "type": "uint256"
        }
      ],
      "payable": false,
      "stateMutability": "view",
      "type": "function"
    },
    {
      "constant": true,
      "inputs": [
        {
          "name": "id",
          "type": "uint256"
        }
      ],
      "name": "isOfferSorted",
      "outputs": [
        {
          "name": "",
          "type": "bool"
        }
      ],
      "payable": false,
      "stateMutability": "view",
      "type": "function"
    },
    {
      "constant": false,
      "inputs": [
        {
          "name": "pay_gem",
          "type": "address"
        },
        {
          "name": "pay_amt",
          "type": "uint256"
        },
        {
          "name": "buy_gem",
          "type": "address"
        },
        {
          "name": "min_fill_amount",
          "type": "uint256"
        }
      ],
      "name": "sellAllAmount",
      "outputs": [
        {
          "name": "fill_amt",
          "type": "uint256"
        }
      ],
      "payable": false,
      "stateMutability": "nonpayable",
      "type": "function"
    },
    {
      "constant": false,
      "inputs": [
        {
          "name": "buy_gem",
          "type": "address"
        },
        {
          "name": "buy_amt",
          "type": "uint256"
        },
        {
          "name": "pay_gem",
          "type": "address"
        },
        {
          "name": "max_fill_amount",
          "type": "uint256"
        }
      ],
      "name": "buyAllAmount",
      "outputs": [
        {
          "name": "fill_amt",
          "type": "uint256"
        }
      ],
      "payable": false,
      "stateMutability": "nonpayable",
      "type": "function"
    },
    {
      "constant": true,
      "inputs": [
        {
          "name": "buy_gem",
          "type": "address"
        },
        {
          "name": "pay_gem",
          "type": "address"
        },
        {
          "name": "pay_amt",
          "type": "uint256"
        }
      ],
      "name": "getBuyAmount",
      "outputs": [
        {
          "name": "fill_amt",
          "type": "uint256"
        }
      ],
      "payable": false,
      "stateMutability": "view",
      "type": "function"
    },
    {
      "constant": true,
      "inputs": [
        {
          "name": "pay_gem",
          "type": "address"
        },
        {
          "name": "buy_gem",
          "type": "address"
        },
        {
          "name": "buy_amt",
          "type": "uint256"
        }
      ],
      "name": "getPayAmount",
      "outputs": [
        {
          "name": "fill_amt",
          "type": "uint256"
        }
      ],
      "payable": false,
      "stateMutability": "view",
      "type": "function"
    }
  ],
  "bytecode": "0x608060405260048054605860020a60ff0219605060020a60ff02199091166a010000000000000000000017166b01000000000000000000000017905534801561004757600080fd5b5060405160208061481e833981016040819052905160018054600160a060020a0319163390811790915590918291907fce241d7ca1f669fee44b6fc00b8eba2df3bb514eed0f6f668f8f89096e81ed9490600090a26004805467ffffffffffffffff9092166101000268ffffffffffffffff00199092169190911790555061474a806100d46000396000f3006080604052600436106102665763ffffffff7c010000000000000000000000000000000000000000000000000000000060003504166301492a0b811461026b5780630374fc6f146102945780630621b4f6146102da57806307da68f514610315578063093f51981461032c57806313af40351461037b578063144a2752146103a957806315e28700146103e05780631aa859d0146104145780631b33d412146104485780631d834a1b14610486578063232cae0b146104a15780632aed1905146104b657806340e58ee5146104d05780634579268a146104e8578063467f0b7b1461053e5780634960645514610556578063511fa48714610583578063557ed1ba146105b157806361f54a79146105e35780636377ebca146105fb578063677170e11461061057806374c1d7d31461064457806375f12b2114610678578063779997c31461068d5780637a9e5e4b146106a55780637ca9429a146106d35780638185402b1461070757806382afd23b146107425780638a72ea6a1461075a5780638af82a2e146107c95780638d7daf95146107de5780638da5cb5b14610812578063911550f41461085057806391be90c814610868578063943911bc1461089657806396d7a9ed146108ae578063a78d4316146108c6578063b4f9b6c8146108de578063bf7c734e146108f6578063bf7e214f14610927578063c2b6b58c1461093c578063c2d526aa14610951578063c41a360a14610987578063d2b420ce1461099f578063d6f15469146109b7578063d6febde8146109d1578063e1a6f014146109ec578063f09ea2a614610a2f578063f582d29314610a6a578063ff1fd97414610a7f575b600080fd5b34801561027757600080fd5b50610280610ab6565b604080519115158252519081900360200190f35b3480156102a057600080fd5b506102c873ffffffffffffffffffffffffffffffffffffffff60043581169060243516610ace565b60408051918252519081900360200190f35b3480156102e657600080fd5b506102c873ffffffffffffffffffffffffffffffffffffffff6004358116906024359060443516606435610b08565b34801561032157600080fd5b5061032a610c4d565b005b34801561033857600080fd5b506102c873ffffffffffffffffffffffffffffffffffffffff600435811690602435166fffffffffffffffffffffffffffffffff60443581169060643516610cbc565b34801561038757600080fd5b5061032a73ffffffffffffffffffffffffffffffffffffffff60043516610cf7565b3480156103b557600080fd5b506102c873ffffffffffffffffffffffffffffffffffffffff60043581169060243516604435610da5565b3480156103ec57600080fd5b5061028073ffffffffffffffffffffffffffffffffffffffff60043581169060243516610e71565b34801561042057600080fd5b5061028073ffffffffffffffffffffffffffffffffffffffff600435811690602435166110e6565b34801561045457600080fd5b506102c860043573ffffffffffffffffffffffffffffffffffffffff60243581169060443590606435166084356113d0565b34801561049257600080fd5b50610280600435602435611635565b3480156104ad57600080fd5b506102c86116b6565b3480156104c257600080fd5b5061028060043515156116bc565b3480156104dc57600080fd5b5061028060043561177d565b3480156104f457600080fd5b5061050060043561184a565b6040805194855273ffffffffffffffffffffffffffffffffffffffff9384166020860152848101929092529091166060830152519081900360800190f35b34801561054a57600080fd5b506102806004356118f6565b34801561056257600080fd5b5061032a6004356fffffffffffffffffffffffffffffffff602435166119c9565b34801561058f57600080fd5b506102c873ffffffffffffffffffffffffffffffffffffffff600435166119f4565b3480156105bd57600080fd5b506105c6611a1c565b6040805167ffffffffffffffff9092168252519081900360200190f35b3480156105ef57600080fd5b506102c8600435611a20565b34801561060757600080fd5b506105c6611a32565b34801561061c57600080fd5b506102c873ffffffffffffffffffffffffffffffffffffffff60043581169060243516611a47565b34801561065057600080fd5b506102c873ffffffffffffffffffffffffffffffffffffffff60043581169060243516611a64565b34801561068457600080fd5b50610280611a81565b34801561069957600080fd5b5061032a600435611a97565b3480156106b157600080fd5b5061032a73ffffffffffffffffffffffffffffffffffffffff60043516611c55565b3480156106df57600080fd5b506102c873ffffffffffffffffffffffffffffffffffffffff60043581169060243516611cff565b34801561071357600080fd5b506102c873ffffffffffffffffffffffffffffffffffffffff6004358116906024359060443516606435611d37565b34801561074e57600080fd5b50610280600435611e61565b34801561076657600080fd5b50610772600435611e99565b6040805196875273ffffffffffffffffffffffffffffffffffffffff9586166020880152868101949094529184166060860152909216608084015267ffffffffffffffff90911660a0830152519081900360c00190f35b3480156107d557600080fd5b506102c8611f09565b3480156107ea57600080fd5b5061028073ffffffffffffffffffffffffffffffffffffffff60043581169060243516611f0f565b34801561081e57600080fd5b50610827612140565b6040805173ffffffffffffffffffffffffffffffffffffffff9092168252519081900360200190f35b34801561085c57600080fd5b506102c860043561215c565b34801561087457600080fd5b506102c873ffffffffffffffffffffffffffffffffffffffff6004351661216e565b3480156108a257600080fd5b506102c8600435612180565b3480156108ba57600080fd5b50610280600435612195565b3480156108d257600080fd5b506102c86004356121aa565b3480156108ea57600080fd5b5061032a6004356121bc565b34801561090257600080fd5b5061028073ffffffffffffffffffffffffffffffffffffffff600435166024356121d3565b34801561093357600080fd5b506108276122e4565b34801561094857600080fd5b50610280612300565b34801561095d57600080fd5b50610969600435612347565b60408051938452602084019290925282820152519081900360600190f35b34801561099357600080fd5b50610827600435612368565b3480156109ab57600080fd5b50610280600435612393565b3480156109c357600080fd5b506102806004351515612411565b3480156109dd57600080fd5b506102806004356024356124d1565b3480156109f857600080fd5b506102c860043573ffffffffffffffffffffffffffffffffffffffff602435811690604435906064351660843560a4351515612536565b348015610a3b57600080fd5b506102c860043573ffffffffffffffffffffffffffffffffffffffff60243581169060443590606435166127fc565b348015610a7657600080fd5b50610280612a6d565b348015610a8b57600080fd5b506102c873ffffffffffffffffffffffffffffffffffffffff60043581169060243516604435612a84565b6004546b010000000000000000000000900460ff1681565b73ffffffffffffffffffffffffffffffffffffffff8083166000908152600660209081526040808320938516835292905220545b92915050565b60008060005b6000861115610c3657610b218588610ace565b9150811515610b2f57600080fd5b600082815260036020526040902060028101549054610b4e9190612b3d565b86670de0b6b3a7640000021015610b6457610c36565b6000828152600360205260409020600201548610610bd857600082815260036020526040902054610b96908490612b6e565b600083815260036020526040902060020154909350610bb6908790612b7e565b600083815260036020526040902054909650610bd39083906119c9565b610c31565b60008281526003602052604090208054600290910154633b9aca0091610c0a9189840291610c0591612b8e565b612baa565b811515610c1357fe5b049050610c208382612b6e565b9250610c2c82826119c9565b600095505b610b0e565b83831015610c4357600080fd5b5050949350505050565b610c7b336000357fffffffff0000000000000000000000000000000000000000000000000000000016612bda565b1515610c8657600080fd5b600480547fffffffffffffffffffffffffffffffffffffffffffff00ffffffffffffffffff166901000000000000000000179055565b6000610cee836fffffffffffffffffffffffffffffffff1686846fffffffffffffffffffffffffffffffff16876127fc565b95945050505050565b610d25336000357fffffffff0000000000000000000000000000000000000000000000000000000016612bda565b1515610d3057600080fd5b600180547fffffffffffffffffffffffff00000000000000000000000000000000000000001673ffffffffffffffffffffffffffffffffffffffff83811691909117918290556040519116907fce241d7ca1f669fee44b6fc00b8eba2df3bb514eed0f6f668f8f89096e81ed9490600090a250565b600080610db28585610ace565b90505b600081815260036020526040902060020154831115610e2f57600081815260036020526040902054610de8908390612b6e565b600082815260036020526040902060020154909250610e08908490612b7e565b92506000831115610e2a57610e1c81612180565b9050801515610e2a57600080fd5b610db5565b60008181526003602052604090208054600290910154610cee918491633b9aca0091610e629188840291610c0591612b8e565b811515610e6b57fe5b04612b6e565b6000610ea1336000357fffffffff0000000000000000000000000000000000000000000000000000000016612bda565b1515610eac57600080fd5b604080513480825260208201838152369383018490526004359360243593849386933393600080357fffffffff0000000000000000000000000000000000000000000000000000000016949092606082018484808284376040519201829003965090945050505050a4610f1f8585611f0f565b15610f2957600080fd5b73ffffffffffffffffffffffffffffffffffffffff851615801590610f63575073ffffffffffffffffffffffffffffffffffffffff841615155b1515610f6e57600080fd5b6001600a60008787604051602001808373ffffffffffffffffffffffffffffffffffffffff1673ffffffffffffffffffffffffffffffffffffffff166c010000000000000000000000000281526014018273ffffffffffffffffffffffffffffffffffffffff1673ffffffffffffffffffffffffffffffffffffffff166c01000000000000000000000000028152601401925050506040516020818303038152906040526040518082805190602001908083835b602083106110415780518252601f199092019160209182019101611022565b51815160209384036101000a6000190180199092169116179052604080519290940182900390912086528581019690965250928301600020805460ff19169515159590951790945550805173ffffffffffffffffffffffffffffffffffffffff898116825288169281019290925280517f4b84ee81b11f5c5a33aaf2f3bdc5a35f23156c1b3cbefdbd00ba84846c19044b9350918290030190a1506001949350505050565b6000611116336000357fffffffff0000000000000000000000000000000000000000000000000000000016612bda565b151561112157600080fd5b604080513480825260208201838152369383018490526004359360243593849386933393600080357fffffffff0000000000000000000000000000000000000000000000000000000016949092606082018484808284376040519201829003965090945050505050a46111948585611f0f565b151561119f57600080fd5b600a60008686604051602001808373ffffffffffffffffffffffffffffffffffffffff1673ffffffffffffffffffffffffffffffffffffffff166c010000000000000000000000000281526014018273ffffffffffffffffffffffffffffffffffffffff1673ffffffffffffffffffffffffffffffffffffffff166c01000000000000000000000000028152601401925050506040516020818303038152906040526040518082805190602001908083835b602083106112705780518252601f199092019160209182019101611251565b51815160209384036101000a60001901801990921691161790526040805192909401829003909120865285810196909652509283016000908120805460ff19169055835173ffffffffffffffffffffffffffffffffffffffff8a81166c0100000000000000000000000090810283890152908c16026034820152845180820360280181526048909101948590528051600a96929591945090925082918401908083835b602083106113325780518252601f199092019160209182019101611313565b51815160209384036101000a6000190180199092169116179052604080519290940182900390912086528581019690965250928301600020805460ff191690555050805173ffffffffffffffffffffffffffffffffffffffff888116825287169281019290925280517f80eb6b7f03b2ffa03a2dda3ce0c7db2b44d4bda32c071d3508a817321cd327d69281900390910190a1506001949350505050565b60008483600a60008383604051602001808373ffffffffffffffffffffffffffffffffffffffff1673ffffffffffffffffffffffffffffffffffffffff166c010000000000000000000000000281526014018273ffffffffffffffffffffffffffffffffffffffff1673ffffffffffffffffffffffffffffffffffffffff166c01000000000000000000000000028152601401925050506040516020818303038152906040526040518082805190602001908083835b602083106114a55780518252601f199092019160209182019101611486565b51815160209384036101000a600019018019909216911617905260408051929094018290039091208652850195909552929092016000205460ff1692508291506115fd90505750600a60008284604051602001808373ffffffffffffffffffffffffffffffffffffffff1673ffffffffffffffffffffffffffffffffffffffff166c010000000000000000000000000281526014018273ffffffffffffffffffffffffffffffffffffffff1673ffffffffffffffffffffffffffffffffffffffff166c01000000000000000000000000028152601401925050506040516020818303038152906040526040518082805190602001908083835b602083106115bd5780518252601f19909201916020918201910161159e565b51815160209384036101000a600019018019909216911617905260408051929094018290039091208652850195909552929092016000205460ff16925050505b151561160857600080fd5b611610612300565b1561161a57600080fd5b61162988888888886000612536565b98975050505050505050565b600061164083612393565b1561164a57600080fd5b61165383611e61565b151561165e57600080fd5b61166783612d2d565b506116728383612dd5565b604080513381526020810185905281517f6d5c16212bdea16850dce4d9fa2314c446bd30ce84700d9c36c7677c6d283940929181900390910190a150600192915050565b60025481565b60006116ec336000357fffffffff0000000000000000000000000000000000000000000000000000000016612bda565b15156116f757600080fd5b600480548315156b0100000000000000000000009081027fffffffffffffffffffffffffffffffffffffffff00ffffffffffffffffffffff9092169190911791829055604080519190920460ff161515815290517fea11e00ec1642be9b494019b756440e2c57dbe9e59242c4f9c64ce33fb4f41d99181900360200190a1506001919050565b60008161178981611e61565b151561179457600080fd5b61179c612300565b806117da57506117ab81612368565b73ffffffffffffffffffffffffffffffffffffffff163373ffffffffffffffffffffffffffffffffffffffff16145b15156117e557600080fd5b6004546b010000000000000000000000900460ff161561183a5761180883612393565b156118265761181683612ff1565b151561182157600080fd5b61183a565b61182f83612d2d565b151561183a57600080fd5b611843836131e5565b9392505050565b6000806000806118586146e9565b5050506000928352505060036020818152604092839020835160c0810185528154808252600183015473ffffffffffffffffffffffffffffffffffffffff90811694830185905260028401549683018790529483015485166060830181905260049093015494851660808301527401000000000000000000000000000000000000000090940467ffffffffffffffff1660a090910152919390929190565b600061190182611e61565b15801561191e575060008281526005602052604090206002015415155b801561195c57506000828152600560205260409020600201547ffffffffffffffffffffffffffffffffffffffffffffffffffffffffffffffff64301115b151561196757600080fd5b60008281526005602090815260408083208381556001810184905560020192909255815133815290810184905281517fcb9d6176c6aac6478ebb9a2754cdce22a944de29ed1f2642f8613884eba4b40c929181900390910190a1506001919050565b6119e5826fffffffffffffffffffffffffffffffff83166124d1565b15156119f057600080fd5b5050565b73ffffffffffffffffffffffffffffffffffffffff1660009081526008602052604090205490565b4290565b60009081526009602052604090205490565b600454610100900467ffffffffffffffff1681565b600760209081526000928352604080842090915290825290205481565b600660209081526000928352604080842090915290825290205481565b6004546901000000000000000000900460ff1681565b600081611aa381611e61565b1515611aae57600080fd5b611ab6612300565b15611ac057600080fd5b60008381526003602081815260409283902060048101546001820154919093015484516c0100000000000000000000000073ffffffffffffffffffffffffffffffffffffffff9384168102828601529183169190910260348201528451602881830301815260489091019485905280518897509190931693918291908401908083835b60208310611b625780518252601f199092019160209182019101611b43565b51815160001960209485036101000a019081169019919091161790526040805194909201849003842060008a81526003808452908490206001810154918101548154600283015460049093015473ffffffffffffffffffffffffffffffffffffffff9485168a5291909316948801949094526fffffffffffffffffffffffffffffffff9182168786015216606086015267ffffffffffffffff7401000000000000000000000000000000000000000090920491909116608085015290519094508893507f70a14c213064359ede031fd2a1645a11ce2ec825ffe6ab5cfb5b160c3ef4d0a29281900360a0019150a4505050565b611c83336000357fffffffff0000000000000000000000000000000000000000000000000000000016612bda565b1515611c8e57600080fd5b600080547fffffffffffffffffffffffff00000000000000000000000000000000000000001673ffffffffffffffffffffffffffffffffffffffff838116919091178083556040519116917f1abebea81bfa2637f28358c371278fb15ede7ea8dd28d2e03b112ff6d936ada491a250565b73ffffffffffffffffffffffffffffffffffffffff918216600090815260076020908152604080832093909416825291909152205490565b6000805b6000851115611e4b57611d4e8685610ace565b9050801515611d5c57600080fd5b60008181526003602052604090208054600290910154611d7c9190612b3d565b85670de0b6b3a7640000021015611d9257611e4b565b6000818152600360205260409020548510611e0357600081815260036020526040902060020154611dc4908390612b6e565b600082815260036020526040902054909250611de1908690612b7e565b600082815260036020526040902054909550611dfe9082906119c9565b611e46565b600081815260036020526040902060028101549054611e35918491633b9aca0091610e62918a840291610c0591612b8e565b9150611e4181866119c9565b600094505b611d3b565b82821115611e5857600080fd5b50949350505050565b60009081526003602052604081206004015474010000000000000000000000000000000000000000900467ffffffffffffffff161190565b600360208190526000918252604090912080546001820154600283015493830154600490930154919373ffffffffffffffffffffffffffffffffffffffff9182169390929082169181169074010000000000000000000000000000000000000000900467ffffffffffffffff1686565b600b5490565b6000600a60008484604051602001808373ffffffffffffffffffffffffffffffffffffffff1673ffffffffffffffffffffffffffffffffffffffff166c010000000000000000000000000281526014018273ffffffffffffffffffffffffffffffffffffffff1673ffffffffffffffffffffffffffffffffffffffff166c01000000000000000000000000028152601401925050506040516020818303038152906040526040518082805190602001908083835b60208310611fe25780518252601f199092019160209182019101611fc3565b51815160209384036101000a600019018019909216911617905260408051929094018290039091208652850195909552929092016000205460ff16925082915061184390505750600a60008385604051602001808373ffffffffffffffffffffffffffffffffffffffff1673ffffffffffffffffffffffffffffffffffffffff166c010000000000000000000000000281526014018273ffffffffffffffffffffffffffffffffffffffff1673ffffffffffffffffffffffffffffffffffffffff166c01000000000000000000000000028152601401925050506040516020818303038152906040526040518082805190602001908083835b602083106120fa5780518252601f1990920191602091820191016120db565b51815160209384036101000a600019018019909216911617905260408051929094018290039091208652850195909552929092016000205460ff16925050509392505050565b60015473ffffffffffffffffffffffffffffffffffffffff1681565b60009081526005602052604090205490565b60086020526000908152604090205481565b60009081526005602052604090206001015490565b600a6020526000908152604090205460ff1681565b60096020526000908152604090205481565b6121c58161177d565b15156121d057600080fd5b50565b6000612203336000357fffffffff0000000000000000000000000000000000000000000000000000000016612bda565b151561220e57600080fd5b604080513480825260208201838152369383018490526004359360243593849386933393600080357fffffffff0000000000000000000000000000000000000000000000000000000016949092606082018484808284376040519201829003965090945050505050a473ffffffffffffffffffffffffffffffffffffffff85166000818152600860209081526040918290208790558151928352820186905280517fc28d56449b0bb31e64ee7487e061f57a2e72aea8019d810832f26dda099823d09281900390910190a1506001949350505050565b60005473ffffffffffffffffffffffffffffffffffffffff1681565b6004546000906901000000000000000000900460ff16806123425750600454610100900467ffffffffffffffff16612336611a1c565b67ffffffffffffffff16115b905090565b60056020526000908152604090208054600182015460029092015490919083565b60009081526003602052604090206004015473ffffffffffffffffffffffffffffffffffffffff1690565b6000818152600560205260408120541515806123bf575060008281526005602052604090206001015415155b80610b025750506000818152600360208181526040808420600181015473ffffffffffffffffffffffffffffffffffffffff908116865260068452828620919094015490931684529190529020541490565b6000612441336000357fffffffff0000000000000000000000000000000000000000000000000000000016612bda565b151561244c57600080fd5b600480548315156a01000000000000000000009081027fffffffffffffffffffffffffffffffffffffffffff00ffffffffffffffffffff9092169190911791829055604080519190920460ff161515815290517f7089e4f0bcc948f9f723a361590c32d9c2284da7ab1981b1249ad2edb9f953c19181900360200190a1506001919050565b6000826124dd81611e61565b15156124e857600080fd5b6124f0612300565b156124fa57600080fd5b6004546b010000000000000000000000900460ff16156125255761251e848461377e565b915061252f565b61251e84846137ef565b5092915050565b60008584600a60008383604051602001808373ffffffffffffffffffffffffffffffffffffffff1673ffffffffffffffffffffffffffffffffffffffff166c010000000000000000000000000281526014018273ffffffffffffffffffffffffffffffffffffffff1673ffffffffffffffffffffffffffffffffffffffff166c01000000000000000000000000028152601401925050506040516020818303038152906040526040518082805190602001908083835b6020831061260b5780518252601f1990920191602091820191016125ec565b51815160209384036101000a600019018019909216911617905260408051929094018290039091208652850195909552929092016000205460ff16925082915061276390505750600a60008284604051602001808373ffffffffffffffffffffffffffffffffffffffff1673ffffffffffffffffffffffffffffffffffffffff166c010000000000000000000000000281526014018273ffffffffffffffffffffffffffffffffffffffff1673ffffffffffffffffffffffffffffffffffffffff166c01000000000000000000000000028152601401925050506040516020818303038152906040526040518082805190602001908083835b602083106127235780518252601f199092019160209182019101612704565b51815160209384036101000a600019018019909216911617905260408051929094018290039091208652850195909552929092016000205460ff16925050505b151561276e57600080fd5b612776612300565b1561278057600080fd5b73ffffffffffffffffffffffffffffffffffffffff88166000908152600860205260409020548910156127b257600080fd5b6004546b010000000000000000000000900460ff16156127e1576127da898989898989613eb3565b92506127f0565b6127ed89898989614010565b92505b50509695505050505050565b60008382600a60008383604051602001808373ffffffffffffffffffffffffffffffffffffffff1673ffffffffffffffffffffffffffffffffffffffff166c010000000000000000000000000281526014018273ffffffffffffffffffffffffffffffffffffffff1673ffffffffffffffffffffffffffffffffffffffff166c01000000000000000000000000028152601401925050506040516020818303038152906040526040518082805190602001908083835b602083106128d15780518252601f1990920191602091820191016128b2565b51815160209384036101000a600019018019909216911617905260408051929094018290039091208652850195909552929092016000205460ff169250829150612a2990505750600a60008284604051602001808373ffffffffffffffffffffffffffffffffffffffff1673ffffffffffffffffffffffffffffffffffffffff166c010000000000000000000000000281526014018273ffffffffffffffffffffffffffffffffffffffff1673ffffffffffffffffffffffffffffffffffffffff166c01000000000000000000000000028152601401925050506040516020818303038152906040526040518082805190602001908083835b602083106129e95780518252601f1990920191602091820191016129ca565b51815160209384036101000a600019018019909216911617905260408051929094018290039091208652850195909552929092016000205460ff16925050505b1515612a3457600080fd5b6004546b010000000000000000000000900460ff1615612a6157612a5a8787878761444a565b9250610c43565b612a5a87878787614010565b6004546a0100000000000000000000900460ff1681565b600080612a918486610ace565b90505b600081815260036020526040902054831115612b0b57600081815260036020526040902060020154612ac7908390612b6e565b600082815260036020526040902054909250612ae4908490612b7e565b92506000831115612b0657612af881612180565b9050801515612b0657600080fd5b612a94565b600081815260036020526040902060028101549054610cee918491633b9aca0091610e629188840291610c0591612b8e565b600081612b5d612b5585670de0b6b3a76400006144e1565b600285610e6b565b811515612b6657fe5b049392505050565b80820182811015610b0257600080fd5b80820382811115610b0257600080fd5b600081612b5d612b55856b033b2e3c9fd0803ce80000006144e1565b60006b033b2e3c9fd0803ce8000000612b5d612bc685856144e1565b60026b033b2e3c9fd0803ce8000000610e6b565b600073ffffffffffffffffffffffffffffffffffffffff8316301415612c0257506001610b02565b60015473ffffffffffffffffffffffffffffffffffffffff84811691161415612c2d57506001610b02565b60005473ffffffffffffffffffffffffffffffffffffffff161515612c5457506000610b02565b60008054604080517fb700961300000000000000000000000000000000000000000000000000000000815273ffffffffffffffffffffffffffffffffffffffff87811660048301523060248301527fffffffff00000000000000000000000000000000000000000000000000000000871660448301529151919092169263b700961392606480820193602093909283900390910190829087803b158015612cfa57600080fd5b505af1158015612d0e573d6000803e3d6000fd5b505050506040513d6020811015612d2457600080fd5b50519050610b02565b600b5460009080612d3d84612393565b15612d4757600080fd5b83600b541415612d6e5760008481526009602052604081208054600b555560019250612dce565b5b600082118015612d7f5750838214155b15612d9a575060008181526009602052604090205490612d6f565b818414612daa5760009250612dce565b60008481526009602052604080822080548484529183209190915585825255600192505b5050919050565b6000806000612de385611e61565b1515612dee57600080fd5b60008581526003602081905260409091209081015460019091015473ffffffffffffffffffffffffffffffffffffffff9182169450169150831580612e395750612e3784612393565b155b15612e4e57612e4785614509565b9350612ef3565b612e58858561459f565b93508315801590612ede5750600085815260036020526040808220600190810154878452919092209091015473ffffffffffffffffffffffffffffffffffffffff9081169116141580612ede575060008581526003602081905260408083208201548784529220015473ffffffffffffffffffffffffffffffffffffffff908116911614155b15612ef35760009350612ef085614509565b93505b8315612f1f57506000838152600560205260408082206001018054908790558683529120849055612f59565b5073ffffffffffffffffffffffffffffffffffffffff81811660009081526006602090815260408083209386168352929052208054908590555b8015612f7d5760008181526005602052604080822087905586825290206001018190555b73ffffffffffffffffffffffffffffffffffffffff808316600090815260076020908152604080832093871683529281529082902080546001019055815187815291517f20fb9bad86c18f7e22e8065258790d9416a7d2df8ff05f80f82c46d38b925acd9281900390910190a15050505050565b60008181526003602081815260408084209283015460019093015473ffffffffffffffffffffffffffffffffffffffff90811680865260078452828620919094168086529252832054909190831061304857600080fd5b60008481526005602052604090206002015415801561306b575061306b84612393565b151561307657600080fd5b73ffffffffffffffffffffffffffffffffffffffff80821660009081526006602090815260408083209386168352929052205484146130f65760008481526005602052604080822054825290206001015484146130d257600080fd5b60008481526005602052604080822060018082015491548452919092200155613139565b60008481526005602090815260408083206001015473ffffffffffffffffffffffffffffffffffffffff8086168552600684528285209087168552909252909120555b6000848152600560205260409020600101541561319057600084815260056020526040808220600101548252902054841461317357600080fd5b600084815260056020526040808220805460019091015483529120555b73ffffffffffffffffffffffffffffffffffffffff9081166000908152600760209081526040808320949093168252928352818120805460001901905593845260059091529091204360029091015550600190565b60006131ef6146e9565b826131f981611e61565b151561320457600080fd5b61320c612300565b8061324a575061321b81612368565b73ffffffffffffffffffffffffffffffffffffffff163373ffffffffffffffffffffffffffffffffffffffff16145b151561325557600080fd5b60045460ff161561326557600080fd5b6001600460006101000a81548160ff0219169083151502179055506003600085815260200190815260200160002060c06040519081016040529081600082015481526020016001820160009054906101000a900473ffffffffffffffffffffffffffffffffffffffff1673ffffffffffffffffffffffffffffffffffffffff1673ffffffffffffffffffffffffffffffffffffffff168152602001600282015481526020016003820160009054906101000a900473ffffffffffffffffffffffffffffffffffffffff1673ffffffffffffffffffffffffffffffffffffffff1673ffffffffffffffffffffffffffffffffffffffff1681526020016004820160009054906101000a900473ffffffffffffffffffffffffffffffffffffffff1673ffffffffffffffffffffffffffffffffffffffff1673ffffffffffffffffffffffffffffffffffffffff1681526020016004820160149054906101000a900467ffffffffffffffff1667ffffffffffffffff1667ffffffffffffffff16815250509150600360008581526020019081526020016000206000808201600090556001820160006101000a81549073ffffffffffffffffffffffffffffffffffffffff021916905560028201600090556003820160006101000a81549073ffffffffffffffffffffffffffffffffffffffff02191690556004820160006101000a81549073ffffffffffffffffffffffffffffffffffffffff02191690556004820160146101000a81549067ffffffffffffffff02191690555050816020015173ffffffffffffffffffffffffffffffffffffffff1663a9059cbb836080015184600001516040518363ffffffff167c0100000000000000000000000000000000000000000000000000000000028152600401808373ffffffffffffffffffffffffffffffffffffffff1673ffffffffffffffffffffffffffffffffffffffff16815260200182815260200192505050602060405180830381600087803b15801561354e57600080fd5b505af1158015613562573d6000803e3d6000fd5b505050506040513d602081101561357857600080fd5b5051151561358557600080fd5b6040805185815290517fa2c251311b1a7a475913900a2a73dc9789a21b04bc737e050bbc506dd4eb34889181900360200190a1816080015173ffffffffffffffffffffffffffffffffffffffff1682602001518360600151604051602001808373ffffffffffffffffffffffffffffffffffffffff1673ffffffffffffffffffffffffffffffffffffffff166c010000000000000000000000000281526014018273ffffffffffffffffffffffffffffffffffffffff1673ffffffffffffffffffffffffffffffffffffffff166c01000000000000000000000000028152601401925050506040516020818303038152906040526040518082805190602001908083835b602083106136a85780518252601f199092019160209182019101613689565b51815160001960209485036101000a0190811690199190911617905260408051949092018490038420898201516060808c01518c518d87015173ffffffffffffffffffffffffffffffffffffffff9485168a5293909116948801949094526fffffffffffffffffffffffffffffffff9384168786015292169185019190915267ffffffffffffffff4216608085015290519094508993507f9577941d28fff863bfbee4694a6a4a56fb09e169619189d2eaa750b5b48199959281900360a0019150a450506004805460ff19169055506001919050565b6004546000906a0100000000000000000000900460ff1615156137a057600080fd5b600083815260036020526040902054821480156137c157506137c183612393565b156137d1576137cf83612ff1565b505b6137db83836137ef565b15156137e657600080fd5b50600192915050565b60006137f96146e9565b60008461380581611e61565b151561381057600080fd5b613818612300565b1561382257600080fd5b60045460ff161561383257600080fd5b60048054600160ff1990911681178255600088815260036020818152604092839020835160c08101855281548082529582015473ffffffffffffffffffffffffffffffffffffffff90811693820193909352600282015494810185905292810154821660608401529094015493841660808201527401000000000000000000000000000000000000000090930467ffffffffffffffff1660a0840152919450906138dd9087906144e1565b8115156138e657fe5b0491506fffffffffffffffffffffffffffffffff8216821461390757600080fd5b6fffffffffffffffffffffffffffffffff8516851461392557600080fd5b841580613930575081155b8061393b5750825185115b806139495750826040015182115b156139575760009350613ea0565b82516139639086612b7e565b60008781526003602052604090819020919091558301516139849083612b7e565b6000878152600360209081526040808320600201939093556060860151608087015184517f23b872dd00000000000000000000000000000000000000000000000000000000815233600482015273ffffffffffffffffffffffffffffffffffffffff91821660248201526044810188905294519116936323b872dd9360648083019493928390030190829087803b158015613a1e57600080fd5b505af1158015613a32573d6000803e3d6000fd5b505050506040513d6020811015613a4857600080fd5b50511515613a5557600080fd5b602080840151604080517fa9059cbb00000000000000000000000000000000000000000000000000000000815233600482015260248101899052905173ffffffffffffffffffffffffffffffffffffffff9092169263a9059cbb926044808401938290030181600087803b158015613acc57600080fd5b505af1158015613ae0573d6000803e3d6000fd5b505050506040513d6020811015613af657600080fd5b50511515613b0357600080fd5b6040805187815290517fa2c251311b1a7a475913900a2a73dc9789a21b04bc737e050bbc506dd4eb34889181900360200190a13373ffffffffffffffffffffffffffffffffffffffff16836080015173ffffffffffffffffffffffffffffffffffffffff1684602001518560600151604051602001808373ffffffffffffffffffffffffffffffffffffffff1673ffffffffffffffffffffffffffffffffffffffff166c010000000000000000000000000281526014018273ffffffffffffffffffffffffffffffffffffffff1673ffffffffffffffffffffffffffffffffffffffff166c01000000000000000000000000028152601401925050506040516020818303038152906040526040518082805190602001908083835b60208310613c3d5780518252601f199092019160209182019101613c1e565b6001836020036101000a0380198251168184511680821785525050505050509050019150506040518091039020600019167f3383e3357c77fd2e3a4b30deea81179bc70a795d053d14d5b7f2f01d0fd4596f89600102876020015188606001518b89426040518087600019166000191681526020018673ffffffffffffffffffffffffffffffffffffffff1673ffffffffffffffffffffffffffffffffffffffff1681526020018573ffffffffffffffffffffffffffffffffffffffff1673ffffffffffffffffffffffffffffffffffffffff168152602001846fffffffffffffffffffffffffffffffff166fffffffffffffffffffffffffffffffff168152602001836fffffffffffffffffffffffffffffffff166fffffffffffffffffffffffffffffffff1681526020018267ffffffffffffffff1667ffffffffffffffff168152602001965050505050505060405180910390a4826060015173ffffffffffffffffffffffffffffffffffffffff16836020015173ffffffffffffffffffffffffffffffffffffffff167f819e390338feffe95e2de57172d6faf337853dfd15c7a09a32d76f7fd24438758785604051808381526020018281526020019250505060405180910390a36000868152600360205260409020541515613e9b57600086815260036020819052604082208281556001810180547fffffffffffffffffffffffff00000000000000000000000000000000000000009081169091556002820193909355908101805490921690915560040180547fffffffff000000000000000000000000000000000000000000000000000000001690555b600193505b50506004805460ff191690555092915050565b60008060008060005b73ffffffffffffffffffffffffffffffffffffffff8089166000908152600660209081526040808320938e168352929052908120541115613fd557505073ffffffffffffffffffffffffffffffffffffffff8087166000908152600660209081526040808320938c168352928152828220548083526003909152919020600281015490549193509085613f50576000613f58565b808b8a840101015b613f628c836144e1565b01613f6d838b6144e1565b1115613f7857613fd5565b613f8b84613f86838c614674565b6124d1565b50889250613fa289613f9d838c614674565b612b7e565b985082613faf8a8d6144e1565b811515613fb857fe5b049a508a1580613fc6575088155b15613fd057613fd5565b613ebc565b600089118015613fe5575060008b115b1561400257613ff68b8b8b8b614010565b94506140028588612dd5565b505050509695505050505050565b600061401a6146e9565b614022612300565b1561402c57600080fd5b60045460ff161561403c57600080fd5b6004805460ff191660011790556fffffffffffffffffffffffffffffffff8616861461406757600080fd5b6fffffffffffffffffffffffffffffffff8416841461408557600080fd5b6000861161409257600080fd5b73ffffffffffffffffffffffffffffffffffffffff851615156140b457600080fd5b600084116140c157600080fd5b73ffffffffffffffffffffffffffffffffffffffff831615156140e357600080fd5b73ffffffffffffffffffffffffffffffffffffffff858116908416141561410957600080fd5b85815273ffffffffffffffffffffffffffffffffffffffff8086166020830152604082018590528316606082015233608082015267ffffffffffffffff421660a082015261415561468b565b6000818152600360208181526040808420865181558287015160018201805473ffffffffffffffffffffffffffffffffffffffff9283167fffffffffffffffffffffffff000000000000000000000000000000000000000091821617909155838901516002840155606089015195830180549683169682169690961790955560808801516004928301805460a08b015167ffffffffffffffff1674010000000000000000000000000000000000000000027fffffffff0000000000000000ffffffffffffffffffffffffffffffffffffffff9385169190981617919091169590951790945581517f23b872dd0000000000000000000000000000000000000000000000000000000081523391810191909152306024820152604481018c90529051949650918916936323b872dd936064808501948390030190829087803b15801561429f57600080fd5b505af11580156142b3573d6000803e3d6000fd5b505050506040513d60208110156142c957600080fd5b505115156142d657600080fd5b6040805183815290517fa2c251311b1a7a475913900a2a73dc9789a21b04bc737e050bbc506dd4eb34889181900360200190a16040805173ffffffffffffffffffffffffffffffffffffffff8781166c010000000000000000000000009081026020808501919091529187160260348301528251808303602801815260489092019283905281513393918291908401908083835b602083106143895780518252601f19909201916020918201910161436a565b51815160001960209485036101000a019081169019919091161790526040805194909201849003842073ffffffffffffffffffffffffffffffffffffffff808e1686528b16918501919091526fffffffffffffffffffffffffffffffff808e16858401528b16606085015267ffffffffffffffff4216608085015290519094508793507f773ff502687307abfa024ac9f62f9752a0d210dac2ffd9a29e38e12e2ea82c829281900360a0019150a4506004805460ff19169055949350505050565b73ffffffffffffffffffffffffffffffffffffffff831660009081526008602052604081205485101561447c57600080fd5b61448885858585614010565b600b80546000838152600960209081526040918290209290925591839055815183815291519293507f8173832a493e0a3989e521458e55bfe9feac9f9b675a94e100b9d5a85f81486292918290030190a1949350505050565b60008115806144fe5750508082028282828115156144fb57fe5b04145b1515610b0257600080fd5b60008080808080861161451b57600080fd5b50505060008381526003602081815260408084209283015460019093015473ffffffffffffffffffffffffffffffffffffffff9081168086526006845282862091909416808652925283205490935090915b811580159061458157506145818683614699565b15610cee57506000818152600560205260409020600101549061456d565b6000808084116145ae57600080fd5b82158015906145c357506145c183611e61565b155b156145e15760009283526005602052604090922060010154916145ae565b8215156145f15761251e84614509565b6145fb8484614699565b1561463b575b821580159061461557506146158484614699565b15614633575060008281526005602052604090206001015491614601565b80915061252f565b8215801590614651575061464f8484614699565b155b1561466c57600092835260056020526040909220549161463b565b82915061252f565b6000818311156146845781611843565b5090919050565b600280546001019081905590565b60008181526003602052604080822060020154848352908220546146bd91906144e1565b600084815260036020526040808220600201548583529120546146e091906144e1565b10159392505050565b6040805160c081018252600080825260208201819052918101829052606081018290526080810182905260a0810191909152905600a165627a7a7230582083c267ec1ae901a761b39f8b08fb8b4d12c993e6324a2e367e7f72f44be676f10029",
  "source": "pragma solidity 0.4.24;\n\nimport \"./ExpiringMarket.sol\";\nimport \"./DSNote.sol\";\n\n\ncontract MatchingEvents {\n    event LogBuyEnabled(bool isEnabled);\n    event LogMinSell(address pay_gem, uint256 min_amount);\n    event LogMatchingEnabled(bool isEnabled);\n    event LogUnsortedOffer(uint256 id);\n    event LogSortedOffer(uint256 id);\n    event LogAddTokenPairWhitelist(ERC20 baseToken, ERC20 quoteToken);\n    event LogRemTokenPairWhitelist(ERC20 baseToken, ERC20 quoteToken);\n    event LogInsert(address keeper, uint256 id);\n    event LogDelete(address keeper, uint256 id);\n}\n\ncontract MatchingMarket is MatchingEvents, ExpiringMarket, DSNote {\n    bool public buyEnabled = true;      //buy enabled\n    bool public matchingEnabled = true; //true: enable matching,\n                                         //false: revert to expiring market\n    struct sortInfo {\n        uint256 next;  //points to id of next higher offer\n        uint256 prev;  //points to id of previous lower offer\n        uint256 delb;  //the blocknumber where this entry was marked for delete\n    }\n    mapping(uint256 => sortInfo) public _rank;                     //doubly linked lists of sorted offer ids\n    mapping(address => mapping(address => uint)) public _best;  //id of the highest offer for a token pair\n    mapping(address => mapping(address => uint)) public _span;  //number of offers stored for token pair in sorted orderbook\n    mapping(address => uint) public _dust;                      //minimum sell amount for a token to avoid dust offers\n    mapping(uint256 => uint) public _near;         //next unsorted offer id\n    mapping(bytes32 => bool) public _menu;      //whitelist tracking which token pairs can be traded\n    uint256 _head;                                 //first unsorted offer id\n\n    //check if token pair is enabled\n    modifier isWhitelist(ERC20 buy_gem, ERC20 pay_gem) {\n        require(\n            _menu[keccak256(abi.encodePacked(buy_gem, pay_gem))]\n            ||\n            _menu[keccak256(abi.encodePacked(pay_gem, buy_gem))]\n        );\n        _;\n    }\n\n    constructor(uint64 close_time) ExpiringMarket(close_time) public {\n    }\n\n    // ---- Public entrypoints ---- //\n\n    function make(\n        ERC20    pay_gem,\n        ERC20    buy_gem,\n        uint128  pay_amt,\n        uint128  buy_amt\n    )\n        public\n        returns (bytes32)\n    {\n        return bytes32(offer(pay_amt, pay_gem, buy_amt, buy_gem));\n    }\n\n    function take(bytes32 id, uint128 maxTakeAmount) public {\n        require(buy(uint256(id), maxTakeAmount));\n    }\n\n    function kill(bytes32 id) public {\n        require(cancel(uint256(id)));\n    }\n\n    // Make a new offer. Takes funds from the caller into market escrow.\n    //\n    // If matching is enabled:\n    //     * creates new offer without putting it in\n    //       the sorted list.\n    //     * available to authorized contracts only!\n    //     * keepers should call insert(id,pos)\n    //       to put offer in the sorted list.\n    //\n    // If matching is disabled:\n    //     * calls expiring market's offer().\n    //     * available to everyone without authorization.\n    //     * no sorting is done.\n    //\n    function offer(\n        uint256 pay_amt,    //maker (ask) sell how much\n        ERC20 pay_gem,   //maker (ask) sell which token\n        uint256 buy_amt,    //taker (ask) buy how much\n        ERC20 buy_gem    //taker (ask) buy which token\n    )\n        public\n        isWhitelist(pay_gem, buy_gem)\n        /* NOT synchronized!!! */\n        returns (uint)\n    {\n        if (matchingEnabled) {\n            return _offeru(pay_amt, pay_gem, buy_amt, buy_gem);\n        } else {\n            return super.offer(pay_amt, pay_gem, buy_amt, buy_gem);\n        }\n    }\n\n    // Make a new offer. Takes funds from the caller into market escrow.\n    function offer(\n        uint256 pay_amt,    //maker (ask) sell how much\n        ERC20 pay_gem,   //maker (ask) sell which token\n        uint256 buy_amt,    //maker (ask) buy how much\n        ERC20 buy_gem,   //maker (ask) buy which token\n        uint256 pos         //position to insert offer, 0 should be used if unknown\n    )\n        public\n        isWhitelist(pay_gem, buy_gem)\n        /*NOT synchronized!!! */\n        can_offer\n        returns (uint)\n    {\n        return offer(pay_amt, pay_gem, buy_amt, buy_gem, pos, false);\n    }\n\n    function offer(\n        uint256 pay_amt,    //maker (ask) sell how much\n        ERC20 pay_gem,   //maker (ask) sell which token\n        uint256 buy_amt,    //maker (ask) buy how much\n        ERC20 buy_gem,   //maker (ask) buy which token\n        uint256 pos,        //position to insert offer, 0 should be used if unknown\n        bool rounding    //match \"close enough\" orders?\n    )\n        public\n        isWhitelist(pay_gem, buy_gem)\n        /*NOT synchronized!!! */\n        can_offer\n        returns (uint)\n    {\n        require(_dust[pay_gem] <= pay_amt);\n\n        if (matchingEnabled) {\n          return _matcho(pay_amt, pay_gem, buy_amt, buy_gem, pos, rounding);\n        }\n        return super.offer(pay_amt, pay_gem, buy_amt, buy_gem);\n    }\n\n    //Transfers funds from caller to offer maker, and from market to caller.\n    function buy(uint256 id, uint256 amount)\n        public\n        /*NOT synchronized!!! */\n        can_buy(id)\n        returns (bool)\n    {\n        if (matchingEnabled) {\n            return _buys(id, amount);\n        } else {\n            return super.buy(id, amount);\n        }\n    }\n\n    // Cancel an offer. Refunds offer maker.\n    function cancel(uint256 id)\n        public\n        /*NOT synchronized!!! */\n        can_cancel(id)\n        returns (bool success)\n    {\n        if (matchingEnabled) {\n            if (isOfferSorted(id)) {\n                require(_unsort(id));\n            } else {\n                require(_hide(id));\n            }\n        }\n        return super.cancel(id);    //delete the offer.\n    }\n\n    //insert offer into the sorted list\n    //keepers need to use this function\n    function insert(\n        uint256 id,   //maker (ask) id\n        uint256 pos   //position to insert into\n    )\n        public\n        returns (bool)\n    {\n        require(!isOfferSorted(id));    //make sure offers[id] is not yet sorted\n        require(isActive(id));          //make sure offers[id] is active\n\n        _hide(id);                      //remove offer from unsorted offers list\n        _sort(id, pos);                 //put offer into the sorted offers list\n        emit LogInsert(msg.sender, id);\n        return true;\n    }\n\n    //deletes _rank [id]\n    //  Function should be called by keepers.\n    function del_rank(uint256 id)\n        public\n    returns (bool)\n    {\n        require(!isActive(id) && _rank[id].delb != 0 && _rank[id].delb < block.number - 10);\n        delete _rank[id];\n        emit LogDelete(msg.sender, id);\n        return true;\n    }\n\n    //returns true if token is succesfully added to whitelist\n    //  Function is used to add a token pair to the whitelist\n    //  All incoming offers are checked against the whitelist.\n    function addTokenPairWhitelist(\n        ERC20 baseToken,\n        ERC20 quoteToken\n    )\n        public\n        auth\n        note\n    returns (bool)\n    {\n        require(!isTokenPairWhitelisted(baseToken, quoteToken));\n        require(address(baseToken) != 0x0 && address(quoteToken) != 0x0);\n\n        _menu[keccak256(abi.encodePacked(baseToken, quoteToken))] = true;\n        emit LogAddTokenPairWhitelist(baseToken, quoteToken);\n        return true;\n    }\n\n    //returns true if token is successfully removed from whitelist\n    //  Function is used to remove a token pair from the whitelist.\n    //  All incoming offers are checked against the whitelist.\n    function remTokenPairWhitelist(\n        ERC20 baseToken,\n        ERC20 quoteToken\n    )\n        public\n        auth\n        note\n    returns (bool)\n    {\n        require(isTokenPairWhitelisted(baseToken, quoteToken));\n\n        delete _menu[keccak256(abi.encodePacked(baseToken, quoteToken))];\n        delete _menu[keccak256(abi.encodePacked(quoteToken, baseToken))];\n        emit LogRemTokenPairWhitelist(baseToken, quoteToken);\n        return true;\n    }\n\n    function isTokenPairWhitelisted(\n        ERC20 baseToken,\n        ERC20 quoteToken\n    )\n        public\n        constant\n        returns (bool)\n    {\n        return (\n            _menu[keccak256(abi.encodePacked(baseToken, quoteToken))]\n            ||\n            _menu[keccak256(abi.encodePacked(quoteToken, baseToken))]\n        );\n    }\n\n    //set the minimum sell amount for a token\n    //    Function is used to avoid \"dust offers\" that have\n    //    very small amount of tokens to sell, and it would\n    //    cost more gas to accept the offer, than the value\n    //    of tokens received.\n    function setMinSell(\n        ERC20 pay_gem,     //token to assign minimum sell amount to\n        uint256 dust          //maker (ask) minimum sell amount\n    )\n        public\n        auth\n        note\n        returns (bool)\n    {\n        _dust[pay_gem] = dust;\n        emit LogMinSell(pay_gem, dust);\n        return true;\n    }\n\n    //returns the minimum sell amount for an offer\n    function getMinSell(\n        ERC20 pay_gem      //token for which minimum sell amount is queried\n    )\n        public\n        constant\n        returns (uint)\n    {\n        return _dust[pay_gem];\n    }\n\n    //set buy functionality enabled/disabled\n    function setBuyEnabled(bool buyEnabled_) public auth returns (bool) {\n        buyEnabled = buyEnabled_;\n        emit LogBuyEnabled(buyEnabled);\n        return true;\n    }\n\n    //set matching enabled/disabled\n    //    If matchingEnabled true(default), then inserted offers are matched.\n    //    Except the ones inserted by contracts, because those end up\n    //    in the unsorted list of offers, that must be later sorted by\n    //    keepers using insert().\n    //    If matchingEnabled is false then MatchingMarket is reverted to ExpiringMarket,\n    //    and matching is not done, and sorted lists are disabled.\n    function setMatchingEnabled(bool matchingEnabled_) public auth returns (bool) {\n        matchingEnabled = matchingEnabled_;\n        emit LogMatchingEnabled(matchingEnabled);\n        return true;\n    }\n\n    //return the best offer for a token pair\n    //      the best offer is the lowest one if it's an ask,\n    //      and highest one if it's a bid offer\n    function getBestOffer(ERC20 sell_gem, ERC20 buy_gem) public constant returns(uint) {\n        return _best[sell_gem][buy_gem];\n    }\n\n    //return the next worse offer in the sorted list\n    //      the worse offer is the higher one if its an ask,\n    //      a lower one if its a bid offer,\n    //      and in both cases the newer one if they're equal.\n    function getWorseOffer(uint256 id) public constant returns(uint) {\n        return _rank[id].prev;\n    }\n\n    //return the next better offer in the sorted list\n    //      the better offer is in the lower priced one if its an ask,\n    //      the next higher priced one if its a bid offer\n    //      and in both cases the older one if they're equal.\n    function getBetterOffer(uint256 id) public constant returns(uint) {\n\n        return _rank[id].next;\n    }\n\n    //return the amount of better offers for a token pair\n    function getOfferCount(ERC20 sell_gem, ERC20 buy_gem) public constant returns(uint) {\n        return _span[sell_gem][buy_gem];\n    }\n\n    //get the first unsorted offer that was inserted by a contract\n    //      Contracts can't calculate the insertion position of their offer because it is not an O(1) operation.\n    //      Their offers get put in the unsorted list of offers.\n    //      Keepers can calculate the insertion position offchain and pass it to the insert() function to insert\n    //      the unsorted offer into the sorted list. Unsorted offers will not be matched, but can be bought with buy().\n    function getFirstUnsortedOffer() public constant returns(uint) {\n        return _head;\n    }\n\n    //get the next unsorted offer\n    //      Can be used to cycle through all the unsorted offers.\n    function getNextUnsortedOffer(uint256 id) public constant returns(uint) {\n        return _near[id];\n    }\n\n    function isOfferSorted(uint256 id) public constant returns(bool) {\n        return _rank[id].next != 0\n               || _rank[id].prev != 0\n               || _best[offers[id].pay_gem][offers[id].buy_gem] == id;\n    }\n\n    function sellAllAmount(ERC20 pay_gem, uint256 pay_amt, ERC20 buy_gem, uint256 min_fill_amount)\n        public\n        returns (uint256 fill_amt)\n    {\n        uint256 offerId;\n        while (pay_amt > 0) {                           //while there is amount to sell\n            offerId = getBestOffer(buy_gem, pay_gem);   //Get the best offer for the token pair\n            require(offerId != 0);                      //Fails if there are not more offers\n\n            // There is a chance that pay_amt is smaller than 1 wei of the other token\n            if (pay_amt * 1 ether < wdiv(offers[offerId].buy_amt, offers[offerId].pay_amt)) {\n                break;                                  //We consider that all amount is sold\n            }\n            if (pay_amt >= offers[offerId].buy_amt) {                       //If amount to sell is higher or equal than current offer amount to buy\n                fill_amt = add(fill_amt, offers[offerId].pay_amt);          //Add amount bought to acumulator\n                pay_amt = sub(pay_amt, offers[offerId].buy_amt);            //Decrease amount to sell\n                take(bytes32(offerId), uint128(offers[offerId].pay_amt));   //We take the whole offer\n            } else { // if lower\n                uint256 baux = rmul(pay_amt * 10 ** 9, rdiv(offers[offerId].pay_amt, offers[offerId].buy_amt)) / 10 ** 9;\n                fill_amt = add(fill_amt, baux);         //Add amount bought to acumulator\n                take(bytes32(offerId), uint128(baux));  //We take the portion of the offer that we need\n                pay_amt = 0;                            //All amount is sold\n            }\n        }\n        require(fill_amt >= min_fill_amount);\n    }\n\n    function buyAllAmount(ERC20 buy_gem, uint256 buy_amt, ERC20 pay_gem, uint256 max_fill_amount)\n        public\n        returns (uint256 fill_amt)\n    {\n        uint256 offerId;\n        while (buy_amt > 0) {                           //Meanwhile there is amount to buy\n            offerId = getBestOffer(buy_gem, pay_gem);   //Get the best offer for the token pair\n            require(offerId != 0);\n\n            // There is a chance that buy_amt is smaller than 1 wei of the other token\n            if (buy_amt * 1 ether < wdiv(offers[offerId].pay_amt, offers[offerId].buy_amt)) {\n                break;                                  //We consider that all amount is sold\n            }\n            if (buy_amt >= offers[offerId].pay_amt) {                       //If amount to buy is higher or equal than current offer amount to sell\n                fill_amt = add(fill_amt, offers[offerId].buy_amt);          //Add amount sold to acumulator\n                buy_amt = sub(buy_amt, offers[offerId].pay_amt);            //Decrease amount to buy\n                take(bytes32(offerId), uint128(offers[offerId].pay_amt));   //We take the whole offer\n            } else {                                                        //if lower\n                fill_amt = add(fill_amt, rmul(buy_amt * 10 ** 9, rdiv(offers[offerId].buy_amt, offers[offerId].pay_amt)) / 10 ** 9); //Add amount sold to acumulator\n                take(bytes32(offerId), uint128(buy_amt));                   //We take the portion of the offer that we need\n                buy_amt = 0;                                                //All amount is bought\n            }\n        }\n        require(fill_amt <= max_fill_amount);\n    }\n\n    function getBuyAmount(ERC20 buy_gem, ERC20 pay_gem, uint256 pay_amt) public constant returns (uint256 fill_amt) {\n        uint256 offerId = getBestOffer(buy_gem, pay_gem);           //Get best offer for the token pair\n        while (pay_amt > offers[offerId].buy_amt) {\n            fill_amt = add(fill_amt, offers[offerId].pay_amt);  //Add amount to buy accumulator\n            pay_amt = sub(pay_amt, offers[offerId].buy_amt);    //Decrease amount to pay\n            if (pay_amt > 0) {                                  //If we still need more offers\n                offerId = getWorseOffer(offerId);               //We look for the next best offer\n                require(offerId != 0);                          //Fails if there are not enough offers to complete\n            }\n        }\n        fill_amt = add(fill_amt, rmul(pay_amt * 10 ** 9, rdiv(offers[offerId].pay_amt, offers[offerId].buy_amt)) / 10 ** 9); //Add proportional amount of last offer to buy accumulator\n    }\n\n    function getPayAmount(ERC20 pay_gem, ERC20 buy_gem, uint256 buy_amt) public constant returns (uint256 fill_amt) {\n        uint256 offerId = getBestOffer(buy_gem, pay_gem);           //Get best offer for the token pair\n        while (buy_amt > offers[offerId].pay_amt) {\n            fill_amt = add(fill_amt, offers[offerId].buy_amt);  //Add amount to pay accumulator\n            buy_amt = sub(buy_amt, offers[offerId].pay_amt);    //Decrease amount to buy\n            if (buy_amt > 0) {                                  //If we still need more offers\n                offerId = getWorseOffer(offerId);               //We look for the next best offer\n                require(offerId != 0);                          //Fails if there are not enough offers to complete\n            }\n        }\n        fill_amt = add(fill_amt, rmul(buy_amt * 10 ** 9, rdiv(offers[offerId].buy_amt, offers[offerId].pay_amt)) / 10 ** 9); //Add proportional amount of last offer to pay accumulator\n    }\n\n    // ---- Internal Functions ---- //\n\n    function _buys(uint256 id, uint256 amount)\n        internal\n        returns (bool)\n    {\n        require(buyEnabled);\n\n        if (amount == offers[id].pay_amt && isOfferSorted(id)) {\n            //offers[id] must be removed from sorted list because all of it is bought\n            _unsort(id);\n        }\n        require(super.buy(id, amount));\n        return true;\n    }\n\n    //find the id of the next higher offer after offers[id]\n    function _find(uint256 id)\n        internal\n        view\n        returns (uint)\n    {\n        require( id > 0 );\n\n        address buy_gem = address(offers[id].buy_gem);\n        address pay_gem = address(offers[id].pay_gem);\n        uint256 top = _best[pay_gem][buy_gem];\n        uint256 old_top = 0;\n\n        // Find the larger-than-id order whose successor is less-than-id.\n        while (top != 0 && _isPricedLtOrEq(id, top)) {\n            old_top = top;\n            top = _rank[top].prev;\n        }\n        return old_top;\n    }\n\n    //find the id of the next higher offer after offers[id]\n    function _findpos(uint256 id, uint256 pos)\n        internal\n        view\n    returns (uint)\n    {\n        require(id > 0);\n\n        // Look for an active order.\n        while (pos != 0 && !isActive(pos)) {\n            pos = _rank[pos].prev;\n        }\n\n        if (pos == 0) {\n            //if we got to the end of list without a single active offer\n            return _find(id);\n\n        } else {\n            // if we did find a nearby active offer\n            // Walk the order book down from there...\n            if(_isPricedLtOrEq(id, pos)) {\n                uint256 old_pos;\n\n                // Guaranteed to run at least once because of\n                // the prior if statements.\n                while (pos != 0 && _isPricedLtOrEq(id, pos)) {\n                    old_pos = pos;\n                    pos = _rank[pos].prev;\n                }\n                return old_pos;\n\n            // ...or walk it up.\n            } else {\n                while (pos != 0 && !_isPricedLtOrEq(id, pos)) {\n                    pos = _rank[pos].next;\n                }\n                return pos;\n            }\n        }\n    }\n\n    //return true if offers[low] priced less than or equal to offers[high]\n    function _isPricedLtOrEq(\n        uint256 low,   //lower priced offer's id\n        uint256 high   //higher priced offer's id\n    )\n        internal\n        view\n        returns (bool)\n    {\n        return mul(offers[low].buy_amt, offers[high].pay_amt)\n          >= mul(offers[high].buy_amt, offers[low].pay_amt);\n    }\n\n    //these variables are global only because of solidity local variable limit\n\n    //match offers with taker offer, and execute token transactions\n    function _matcho(\n        uint256 t_pay_amt,    //taker sell how much\n        ERC20 t_pay_gem,   //taker sell which token\n        uint256 t_buy_amt,    //taker buy how much\n        ERC20 t_buy_gem,   //taker buy which token\n        uint256 pos,          //position id\n        bool rounding      //match \"close enough\" orders?\n    )\n        internal\n        returns (uint256 id)\n    {\n        uint256 best_maker_id;    //highest maker id\n        uint256 t_buy_amt_old;    //taker buy how much saved\n        uint256 m_buy_amt;        //maker offer wants to buy this much token\n        uint256 m_pay_amt;        //maker offer wants to sell this much token\n\n        // there is at least one offer stored for token pair\n        while (_best[t_buy_gem][t_pay_gem] > 0) {\n            best_maker_id = _best[t_buy_gem][t_pay_gem];\n            m_buy_amt = offers[best_maker_id].buy_amt;\n            m_pay_amt = offers[best_maker_id].pay_amt;\n\n            // Ugly hack to work around rounding errors. Based on the idea that\n            // the furthest the amounts can stray from their \"true\" values is 1.\n            // Ergo the worst case has t_pay_amt and m_pay_amt at +1 away from\n            // their \"correct\" values and m_buy_amt and t_buy_amt at -1.\n            // Since (c - 1) * (d - 1) > (a + 1) * (b + 1) is equivalent to\n            // c * d > a * b + a + b + c + d, we write...\n            if (mul(m_buy_amt, t_buy_amt) > mul(t_pay_amt, m_pay_amt) +\n                (rounding ? m_buy_amt + t_buy_amt + t_pay_amt + m_pay_amt : 0))\n            {\n                break;\n            }\n            // ^ The `rounding` parameter is a compromise borne of a couple days\n            // of discussion.\n\n            buy(best_maker_id, min(m_pay_amt, t_buy_amt));\n            t_buy_amt_old = t_buy_amt;\n            t_buy_amt = sub(t_buy_amt, min(m_pay_amt, t_buy_amt));\n            t_pay_amt = mul(t_buy_amt, t_pay_amt) / t_buy_amt_old;\n\n            if (t_pay_amt == 0 || t_buy_amt == 0) {\n                break;\n            }\n        }\n\n        if (t_buy_amt > 0 && t_pay_amt > 0) {\n            //new offer should be created\n            id = super.offer(t_pay_amt, t_pay_gem, t_buy_amt, t_buy_gem);\n            //insert offer into the sorted list\n            _sort(id, pos);\n        }\n    }\n\n    // Make a new offer without putting it in the sorted list.\n    // Takes funds from the caller into market escrow.\n    // ****Available to authorized contracts only!**********\n    // Keepers should call insert(id,pos) to put offer in the sorted list.\n    function _offeru(\n        uint256 pay_amt,      //maker (ask) sell how much\n        ERC20 pay_gem,     //maker (ask) sell which token\n        uint256 buy_amt,      //maker (ask) buy how much\n        ERC20 buy_gem      //maker (ask) buy which token\n    )\n        internal\n        /*NOT synchronized!!! */\n        returns (uint256 id)\n    {\n        require(_dust[pay_gem] <= pay_amt);\n        id = super.offer(pay_amt, pay_gem, buy_amt, buy_gem);\n        _near[id] = _head;\n        _head = id;\n        emit LogUnsortedOffer(id);\n    }\n\n    //put offer into the sorted list\n    function _sort(\n        uint256 id,    //maker (ask) id\n        uint256 pos    //position to insert into\n    )\n        internal\n    {\n        require(isActive(id));\n\n        address buy_gem = address(offers[id].buy_gem);\n        address pay_gem = address(offers[id].pay_gem);\n        uint256 prev_id;                                      //maker (ask) id\n\n        if (pos == 0 || !isOfferSorted(pos)) {\n            pos = _find(id);\n        } else {\n            pos = _findpos(id, pos);\n\n            //if user has entered a `pos` that belongs to another currency pair\n            //we start from scratch\n            if(pos != 0 && (offers[pos].pay_gem != offers[id].pay_gem\n                      || offers[pos].buy_gem != offers[id].buy_gem))\n            {\n                pos = 0;\n                pos=_find(id);\n            }\n        }\n\n\n        //requirement below is satisfied by statements above\n        //require(pos == 0 || isOfferSorted(pos));\n\n\n        if (pos != 0) {                                    //offers[id] is not the highest offer\n            //requirement below is satisfied by statements above\n            //require(_isPricedLtOrEq(id, pos));\n            prev_id = _rank[pos].prev;\n            _rank[pos].prev = id;\n            _rank[id].next = pos;\n        } else {                                           //offers[id] is the highest offer\n            prev_id = _best[pay_gem][buy_gem];\n            _best[pay_gem][buy_gem] = id;\n        }\n\n        if (prev_id != 0) {                               //if lower offer does exist\n            //requirement below is satisfied by statements above\n            //require(!_isPricedLtOrEq(id, prev_id));\n            _rank[prev_id].next = id;\n            _rank[id].prev = prev_id;\n        }\n\n        _span[pay_gem][buy_gem]++;\n        emit LogSortedOffer(id);\n    }\n\n    // Remove offer from the sorted list (does not cancel offer)\n    function _unsort(\n        uint256 id    //id of maker (ask) offer to remove from sorted list\n    )\n        internal\n        returns (bool)\n    {\n        address buy_gem = address(offers[id].buy_gem);\n        address pay_gem = address(offers[id].pay_gem);\n        require(_span[pay_gem][buy_gem] > 0);\n\n        require(_rank[id].delb == 0 &&                    //assert id is in the sorted list\n                 isOfferSorted(id));\n\n        if (id != _best[pay_gem][buy_gem]) {              // offers[id] is not the highest offer\n            require(_rank[_rank[id].next].prev == id);\n            _rank[_rank[id].next].prev = _rank[id].prev;\n        } else {                                          //offers[id] is the highest offer\n            _best[pay_gem][buy_gem] = _rank[id].prev;\n        }\n\n        if (_rank[id].prev != 0) {                        //offers[id] is not the lowest offer\n            require(_rank[_rank[id].prev].next == id);\n            _rank[_rank[id].prev].next = _rank[id].next;\n        }\n\n        _span[pay_gem][buy_gem]--;\n        _rank[id].delb = block.number;                    //mark _rank[id] for deletion\n        return true;\n    }\n\n    //Hide offer from the unsorted order book (does not cancel offer)\n    function _hide(\n        uint256 id     //id of maker offer to remove from unsorted list\n    )\n        internal\n        returns (bool)\n    {\n        uint256 uid = _head;               //id of an offer in unsorted offers list\n        uint256 pre = uid;                 //id of previous offer in unsorted offers list\n\n        require(!isOfferSorted(id));    //make sure offer id is not in sorted offers list\n\n        if (_head == id) {              //check if offer is first offer in unsorted offers list\n            _head = _near[id];          //set head to new first unsorted offer\n            _near[id] = 0;              //delete order from unsorted order list\n            return true;\n        }\n        while (uid > 0 && uid != id) {  //find offer in unsorted order list\n            pre = uid;\n            uid = _near[uid];\n        }\n        if (uid != id) {                //did not find offer id in unsorted offers list\n            return false;\n        }\n        _near[pre] = _near[id];         //set previous unsorted offer to point to offer after offer id\n        _near[id] = 0;                  //delete order from unsorted order list\n        return true;\n    }\n}\n",
  "sourcePath": "/Users/brendanchou/dydx/protocol/contracts/external/Maker/MatchingMarket.sol",
  "compiler": {
    "name": "solc",
    "version": "0.4.24+commit.e67f0147.Emscripten.clang"
  },
  "schemaVersion": "2.0.1",
  "updatedAt": "2018-09-18T20:22:03.415Z"
}