{
  "contractName": "MatchingMarketV2",
  "abi": [
    {
      "constant": true,
      "inputs": [],
      "name": "matchingEnabled",
      "outputs": [
        {
          "name": "",
          "type": "bool"
        }
      ],
      "payable": false,
      "stateMutability": "view",
      "type": "function"
    },
    {
      "constant": false,
      "inputs": [],
      "name": "stop",
      "outputs": [],
      "payable": false,
      "stateMutability": "nonpayable",
      "type": "function"
    },
    {
      "constant": false,
      "inputs": [
        {
          "name": "owner_",
          "type": "address"
        }
      ],
      "name": "setOwner",
      "outputs": [],
      "payable": false,
      "stateMutability": "nonpayable",
      "type": "function"
    },
    {
      "constant": true,
      "inputs": [],
      "name": "last_offer_id",
      "outputs": [
        {
          "name": "",
          "type": "uint256"
        }
      ],
      "payable": false,
      "stateMutability": "view",
      "type": "function"
    },
    {
      "constant": true,
      "inputs": [
        {
          "name": "id",
          "type": "uint256"
        }
      ],
      "name": "getOffer",
      "outputs": [
        {
          "name": "",
          "type": "uint256"
        },
        {
          "name": "",
          "type": "address"
        },
        {
          "name": "",
          "type": "uint256"
        },
        {
          "name": "",
          "type": "address"
        }
      ],
      "payable": false,
      "stateMutability": "view",
      "type": "function"
    },
    {
      "constant": true,
      "inputs": [],
      "name": "getTime",
      "outputs": [
        {
          "name": "",
          "type": "uint64"
        }
      ],
      "payable": false,
      "stateMutability": "view",
      "type": "function"
    },
    {
      "constant": true,
      "inputs": [],
      "name": "close_time",
      "outputs": [
        {
          "name": "",
          "type": "uint64"
        }
      ],
      "payable": false,
      "stateMutability": "view",
      "type": "function"
    },
    {
      "constant": true,
      "inputs": [
        {
          "name": "",
          "type": "address"
        },
        {
          "name": "",
          "type": "address"
        }
      ],
      "name": "_span",
      "outputs": [
        {
          "name": "",
          "type": "uint256"
        }
      ],
      "payable": false,
      "stateMutability": "view",
      "type": "function"
    },
    {
      "constant": true,
      "inputs": [
        {
          "name": "",
          "type": "address"
        },
        {
          "name": "",
          "type": "address"
        }
      ],
      "name": "_best",
      "outputs": [
        {
          "name": "",
          "type": "uint256"
        }
      ],
      "payable": false,
      "stateMutability": "view",
      "type": "function"
    },
    {
      "constant": true,
      "inputs": [],
      "name": "stopped",
      "outputs": [
        {
          "name": "",
          "type": "bool"
        }
      ],
      "payable": false,
      "stateMutability": "view",
      "type": "function"
    },
    {
      "constant": false,
      "inputs": [
        {
          "name": "id_",
          "type": "bytes32"
        }
      ],
      "name": "bump",
      "outputs": [],
      "payable": false,
      "stateMutability": "nonpayable",
      "type": "function"
    },
    {
      "constant": false,
      "inputs": [
        {
          "name": "authority_",
          "type": "address"
        }
      ],
      "name": "setAuthority",
      "outputs": [],
      "payable": false,
      "stateMutability": "nonpayable",
      "type": "function"
    },
    {
      "constant": true,
      "inputs": [
        {
          "name": "id",
          "type": "uint256"
        }
      ],
      "name": "isActive",
      "outputs": [
        {
          "name": "active",
          "type": "bool"
        }
      ],
      "payable": false,
      "stateMutability": "view",
      "type": "function"
    },
    {
      "constant": true,
      "inputs": [
        {
          "name": "",
          "type": "uint256"
        }
      ],
      "name": "offers",
      "outputs": [
        {
          "name": "pay_amt",
          "type": "uint256"
        },
        {
          "name": "pay_gem",
          "type": "address"
        },
        {
          "name": "buy_amt",
          "type": "uint256"
        },
        {
          "name": "buy_gem",
          "type": "address"
        },
        {
          "name": "owner",
          "type": "address"
        },
        {
          "name": "timestamp",
          "type": "uint64"
        }
      ],
      "payable": false,
      "stateMutability": "view",
      "type": "function"
    },
    {
      "constant": true,
      "inputs": [],
      "name": "owner",
      "outputs": [
        {
          "name": "",
          "type": "address"
        }
      ],
      "payable": false,
      "stateMutability": "view",
      "type": "function"
    },
    {
      "constant": true,
      "inputs": [
        {
          "name": "",
          "type": "address"
        }
      ],
      "name": "_dust",
      "outputs": [
        {
          "name": "",
          "type": "uint256"
        }
      ],
      "payable": false,
      "stateMutability": "view",
      "type": "function"
    },
    {
      "constant": true,
      "inputs": [
        {
          "name": "",
          "type": "uint256"
        }
      ],
      "name": "_near",
      "outputs": [
        {
          "name": "",
          "type": "uint256"
        }
      ],
      "payable": false,
      "stateMutability": "view",
      "type": "function"
    },
    {
      "constant": true,
      "inputs": [],
      "name": "authority",
      "outputs": [
        {
          "name": "",
          "type": "address"
        }
      ],
      "payable": false,
      "stateMutability": "view",
      "type": "function"
    },
    {
      "constant": true,
      "inputs": [],
      "name": "isClosed",
      "outputs": [
        {
          "name": "closed",
          "type": "bool"
        }
      ],
      "payable": false,
      "stateMutability": "view",
      "type": "function"
    },
    {
      "constant": true,
      "inputs": [
        {
          "name": "",
          "type": "uint256"
        }
      ],
      "name": "_rank",
      "outputs": [
        {
          "name": "next",
          "type": "uint256"
        },
        {
          "name": "prev",
          "type": "uint256"
        },
        {
          "name": "delb",
          "type": "uint256"
        }
      ],
      "payable": false,
      "stateMutability": "view",
      "type": "function"
    },
    {
      "constant": true,
      "inputs": [
        {
          "name": "id",
          "type": "uint256"
        }
      ],
      "name": "getOwner",
      "outputs": [
        {
          "name": "owner",
          "type": "address"
        }
      ],
      "payable": false,
      "stateMutability": "view",
      "type": "function"
    },
    {
      "constant": true,
      "inputs": [],
      "name": "buyEnabled",
      "outputs": [
        {
          "name": "",
          "type": "bool"
        }
      ],
      "payable": false,
      "stateMutability": "view",
      "type": "function"
    },
    {
      "inputs": [
        {
          "name": "close_time",
          "type": "uint64"
        }
      ],
      "payable": false,
      "stateMutability": "nonpayable",
      "type": "constructor"
    },
    {
      "anonymous": true,
      "inputs": [
        {
          "indexed": true,
          "name": "sig",
          "type": "bytes4"
        },
        {
          "indexed": true,
          "name": "guy",
          "type": "address"
        },
        {
          "indexed": true,
          "name": "foo",
          "type": "bytes32"
        },
        {
          "indexed": true,
          "name": "bar",
          "type": "bytes32"
        },
        {
          "indexed": false,
          "name": "wad",
          "type": "uint256"
        },
        {
          "indexed": false,
          "name": "fax",
          "type": "bytes"
        }
      ],
      "name": "LogNote",
      "type": "event"
    },
    {
      "anonymous": false,
      "inputs": [
        {
          "indexed": false,
          "name": "id",
          "type": "uint256"
        }
      ],
      "name": "LogItemUpdate",
      "type": "event"
    },
    {
      "anonymous": false,
      "inputs": [
        {
          "indexed": false,
          "name": "pay_amt",
          "type": "uint256"
        },
        {
          "indexed": true,
          "name": "pay_gem",
          "type": "address"
        },
        {
          "indexed": false,
          "name": "buy_amt",
          "type": "uint256"
        },
        {
          "indexed": true,
          "name": "buy_gem",
          "type": "address"
        }
      ],
      "name": "LogTrade",
      "type": "event"
    },
    {
      "anonymous": false,
      "inputs": [
        {
          "indexed": true,
          "name": "id",
          "type": "bytes32"
        },
        {
          "indexed": true,
          "name": "pair",
          "type": "bytes32"
        },
        {
          "indexed": true,
          "name": "maker",
          "type": "address"
        },
        {
          "indexed": false,
          "name": "pay_gem",
          "type": "address"
        },
        {
          "indexed": false,
          "name": "buy_gem",
          "type": "address"
        },
        {
          "indexed": false,
          "name": "pay_amt",
          "type": "uint128"
        },
        {
          "indexed": false,
          "name": "buy_amt",
          "type": "uint128"
        },
        {
          "indexed": false,
          "name": "timestamp",
          "type": "uint64"
        }
      ],
      "name": "LogMake",
      "type": "event"
    },
    {
      "anonymous": false,
      "inputs": [
        {
          "indexed": true,
          "name": "id",
          "type": "bytes32"
        },
        {
          "indexed": true,
          "name": "pair",
          "type": "bytes32"
        },
        {
          "indexed": true,
          "name": "maker",
          "type": "address"
        },
        {
          "indexed": false,
          "name": "pay_gem",
          "type": "address"
        },
        {
          "indexed": false,
          "name": "buy_gem",
          "type": "address"
        },
        {
          "indexed": false,
          "name": "pay_amt",
          "type": "uint128"
        },
        {
          "indexed": false,
          "name": "buy_amt",
          "type": "uint128"
        },
        {
          "indexed": false,
          "name": "timestamp",
          "type": "uint64"
        }
      ],
      "name": "LogBump",
      "type": "event"
    },
    {
      "anonymous": false,
      "inputs": [
        {
          "indexed": false,
          "name": "id",
          "type": "bytes32"
        },
        {
          "indexed": true,
          "name": "pair",
          "type": "bytes32"
        },
        {
          "indexed": true,
          "name": "maker",
          "type": "address"
        },
        {
          "indexed": false,
          "name": "pay_gem",
          "type": "address"
        },
        {
          "indexed": false,
          "name": "buy_gem",
          "type": "address"
        },
        {
          "indexed": true,
          "name": "taker",
          "type": "address"
        },
        {
          "indexed": false,
          "name": "take_amt",
          "type": "uint128"
        },
        {
          "indexed": false,
          "name": "give_amt",
          "type": "uint128"
        },
        {
          "indexed": false,
          "name": "timestamp",
          "type": "uint64"
        }
      ],
      "name": "LogTake",
      "type": "event"
    },
    {
      "anonymous": false,
      "inputs": [
        {
          "indexed": true,
          "name": "id",
          "type": "bytes32"
        },
        {
          "indexed": true,
          "name": "pair",
          "type": "bytes32"
        },
        {
          "indexed": true,
          "name": "maker",
          "type": "address"
        },
        {
          "indexed": false,
          "name": "pay_gem",
          "type": "address"
        },
        {
          "indexed": false,
          "name": "buy_gem",
          "type": "address"
        },
        {
          "indexed": false,
          "name": "pay_amt",
          "type": "uint128"
        },
        {
          "indexed": false,
          "name": "buy_amt",
          "type": "uint128"
        },
        {
          "indexed": false,
          "name": "timestamp",
          "type": "uint64"
        }
      ],
      "name": "LogKill",
      "type": "event"
    },
    {
      "anonymous": false,
      "inputs": [
        {
          "indexed": true,
          "name": "authority",
          "type": "address"
        }
      ],
      "name": "LogSetAuthority",
      "type": "event"
    },
    {
      "anonymous": false,
      "inputs": [
        {
          "indexed": true,
          "name": "owner",
          "type": "address"
        }
      ],
      "name": "LogSetOwner",
      "type": "event"
    },
    {
      "anonymous": false,
      "inputs": [
        {
          "indexed": false,
          "name": "isEnabled",
          "type": "bool"
        }
      ],
      "name": "LogBuyEnabled",
      "type": "event"
    },
    {
      "anonymous": false,
      "inputs": [
        {
          "indexed": false,
          "name": "pay_gem",
          "type": "address"
        },
        {
          "indexed": false,
          "name": "min_amount",
          "type": "uint256"
        }
      ],
      "name": "LogMinSell",
      "type": "event"
    },
    {
      "anonymous": false,
      "inputs": [
        {
          "indexed": false,
          "name": "isEnabled",
          "type": "bool"
        }
      ],
      "name": "LogMatchingEnabled",
      "type": "event"
    },
    {
      "anonymous": false,
      "inputs": [
        {
          "indexed": false,
          "name": "id",
          "type": "uint256"
        }
      ],
      "name": "LogUnsortedOffer",
      "type": "event"
    },
    {
      "anonymous": false,
      "inputs": [
        {
          "indexed": false,
          "name": "id",
          "type": "uint256"
        }
      ],
      "name": "LogSortedOffer",
      "type": "event"
    },
    {
      "anonymous": false,
      "inputs": [
        {
          "indexed": false,
          "name": "keeper",
          "type": "address"
        },
        {
          "indexed": false,
          "name": "id",
          "type": "uint256"
        }
      ],
      "name": "LogInsert",
      "type": "event"
    },
    {
      "anonymous": false,
      "inputs": [
        {
          "indexed": false,
          "name": "keeper",
          "type": "address"
        },
        {
          "indexed": false,
          "name": "id",
          "type": "uint256"
        }
      ],
      "name": "LogDelete",
      "type": "event"
    },
    {
      "constant": false,
      "inputs": [
        {
          "name": "pay_gem",
          "type": "address"
        },
        {
          "name": "buy_gem",
          "type": "address"
        },
        {
          "name": "pay_amt",
          "type": "uint128"
        },
        {
          "name": "buy_amt",
          "type": "uint128"
        }
      ],
      "name": "make",
      "outputs": [
        {
          "name": "",
          "type": "bytes32"
        }
      ],
      "payable": false,
      "stateMutability": "nonpayable",
      "type": "function"
    },
    {
      "constant": false,
      "inputs": [
        {
          "name": "id",
          "type": "bytes32"
        },
        {
          "name": "maxTakeAmount",
          "type": "uint128"
        }
      ],
      "name": "take",
      "outputs": [],
      "payable": false,
      "stateMutability": "nonpayable",
      "type": "function"
    },
    {
      "constant": false,
      "inputs": [
        {
          "name": "id",
          "type": "bytes32"
        }
      ],
      "name": "kill",
      "outputs": [],
      "payable": false,
      "stateMutability": "nonpayable",
      "type": "function"
    },
    {
      "constant": false,
      "inputs": [
        {
          "name": "pay_amt",
          "type": "uint256"
        },
        {
          "name": "pay_gem",
          "type": "address"
        },
        {
          "name": "buy_amt",
          "type": "uint256"
        },
        {
          "name": "buy_gem",
          "type": "address"
        },
        {
          "name": "pos",
          "type": "uint256"
        }
      ],
      "name": "offer",
      "outputs": [
        {
          "name": "",
          "type": "uint256"
        }
      ],
      "payable": false,
      "stateMutability": "nonpayable",
      "type": "function"
    },
    {
      "constant": false,
      "inputs": [
        {
          "name": "pay_amt",
          "type": "uint256"
        },
        {
          "name": "pay_gem",
          "type": "address"
        },
        {
          "name": "buy_amt",
          "type": "uint256"
        },
        {
          "name": "buy_gem",
          "type": "address"
        },
        {
          "name": "pos",
          "type": "uint256"
        },
        {
          "name": "rounding",
          "type": "bool"
        }
      ],
      "name": "offer",
      "outputs": [
        {
          "name": "",
          "type": "uint256"
        }
      ],
      "payable": false,
      "stateMutability": "nonpayable",
      "type": "function"
    },
    {
      "constant": false,
      "inputs": [
        {
          "name": "pay_amt",
          "type": "uint256"
        },
        {
          "name": "pay_gem",
          "type": "address"
        },
        {
          "name": "buy_amt",
          "type": "uint256"
        },
        {
          "name": "buy_gem",
          "type": "address"
        }
      ],
      "name": "offer",
      "outputs": [
        {
          "name": "",
          "type": "uint256"
        }
      ],
      "payable": false,
      "stateMutability": "nonpayable",
      "type": "function"
    },
    {
      "constant": false,
      "inputs": [
        {
          "name": "id",
          "type": "uint256"
        },
        {
          "name": "amount",
          "type": "uint256"
        }
      ],
      "name": "buy",
      "outputs": [
        {
          "name": "",
          "type": "bool"
        }
      ],
      "payable": false,
      "stateMutability": "nonpayable",
      "type": "function"
    },
    {
      "constant": false,
      "inputs": [
        {
          "name": "id",
          "type": "uint256"
        }
      ],
      "name": "cancel",
      "outputs": [
        {
          "name": "success",
          "type": "bool"
        }
      ],
      "payable": false,
      "stateMutability": "nonpayable",
      "type": "function"
    },
    {
      "constant": false,
      "inputs": [
        {
          "name": "id",
          "type": "uint256"
        },
        {
          "name": "pos",
          "type": "uint256"
        }
      ],
      "name": "insert",
      "outputs": [
        {
          "name": "",
          "type": "bool"
        }
      ],
      "payable": false,
      "stateMutability": "nonpayable",
      "type": "function"
    },
    {
      "constant": false,
      "inputs": [
        {
          "name": "id",
          "type": "uint256"
        }
      ],
      "name": "del_rank",
      "outputs": [
        {
          "name": "",
          "type": "bool"
        }
      ],
      "payable": false,
      "stateMutability": "nonpayable",
      "type": "function"
    },
    {
      "constant": false,
      "inputs": [
        {
          "name": "pay_gem",
          "type": "address"
        },
        {
          "name": "dust",
          "type": "uint256"
        }
      ],
      "name": "setMinSell",
      "outputs": [
        {
          "name": "",
          "type": "bool"
        }
      ],
      "payable": false,
      "stateMutability": "nonpayable",
      "type": "function"
    },
    {
      "constant": true,
      "inputs": [
        {
          "name": "pay_gem",
          "type": "address"
        }
      ],
      "name": "getMinSell",
      "outputs": [
        {
          "name": "",
          "type": "uint256"
        }
      ],
      "payable": false,
      "stateMutability": "view",
      "type": "function"
    },
    {
      "constant": false,
      "inputs": [
        {
          "name": "buyEnabled_",
          "type": "bool"
        }
      ],
      "name": "setBuyEnabled",
      "outputs": [
        {
          "name": "",
          "type": "bool"
        }
      ],
      "payable": false,
      "stateMutability": "nonpayable",
      "type": "function"
    },
    {
      "constant": false,
      "inputs": [
        {
          "name": "matchingEnabled_",
          "type": "bool"
        }
      ],
      "name": "setMatchingEnabled",
      "outputs": [
        {
          "name": "",
          "type": "bool"
        }
      ],
      "payable": false,
      "stateMutability": "nonpayable",
      "type": "function"
    },
    {
      "constant": true,
      "inputs": [
        {
          "name": "sell_gem",
          "type": "address"
        },
        {
          "name": "buy_gem",
          "type": "address"
        }
      ],
      "name": "getBestOffer",
      "outputs": [
        {
          "name": "",
          "type": "uint256"
        }
      ],
      "payable": false,
      "stateMutability": "view",
      "type": "function"
    },
    {
      "constant": true,
      "inputs": [
        {
          "name": "id",
          "type": "uint256"
        }
      ],
      "name": "getWorseOffer",
      "outputs": [
        {
          "name": "",
          "type": "uint256"
        }
      ],
      "payable": false,
      "stateMutability": "view",
      "type": "function"
    },
    {
      "constant": true,
      "inputs": [
        {
          "name": "id",
          "type": "uint256"
        }
      ],
      "name": "getBetterOffer",
      "outputs": [
        {
          "name": "",
          "type": "uint256"
        }
      ],
      "payable": false,
      "stateMutability": "view",
      "type": "function"
    },
    {
      "constant": true,
      "inputs": [
        {
          "name": "sell_gem",
          "type": "address"
        },
        {
          "name": "buy_gem",
          "type": "address"
        }
      ],
      "name": "getOfferCount",
      "outputs": [
        {
          "name": "",
          "type": "uint256"
        }
      ],
      "payable": false,
      "stateMutability": "view",
      "type": "function"
    },
    {
      "constant": true,
      "inputs": [],
      "name": "getFirstUnsortedOffer",
      "outputs": [
        {
          "name": "",
          "type": "uint256"
        }
      ],
      "payable": false,
      "stateMutability": "view",
      "type": "function"
    },
    {
      "constant": true,
      "inputs": [
        {
          "name": "id",
          "type": "uint256"
        }
      ],
      "name": "getNextUnsortedOffer",
      "outputs": [
        {
          "name": "",
          "type": "uint256"
        }
      ],
      "payable": false,
      "stateMutability": "view",
      "type": "function"
    },
    {
      "constant": true,
      "inputs": [
        {
          "name": "id",
          "type": "uint256"
        }
      ],
      "name": "isOfferSorted",
      "outputs": [
        {
          "name": "",
          "type": "bool"
        }
      ],
      "payable": false,
      "stateMutability": "view",
      "type": "function"
    },
    {
      "constant": false,
      "inputs": [
        {
          "name": "pay_gem",
          "type": "address"
        },
        {
          "name": "pay_amt",
          "type": "uint256"
        },
        {
          "name": "buy_gem",
          "type": "address"
        },
        {
          "name": "min_fill_amount",
          "type": "uint256"
        }
      ],
      "name": "sellAllAmount",
      "outputs": [
        {
          "name": "fill_amt",
          "type": "uint256"
        }
      ],
      "payable": false,
      "stateMutability": "nonpayable",
      "type": "function"
    },
    {
      "constant": false,
      "inputs": [
        {
          "name": "buy_gem",
          "type": "address"
        },
        {
          "name": "buy_amt",
          "type": "uint256"
        },
        {
          "name": "pay_gem",
          "type": "address"
        },
        {
          "name": "max_fill_amount",
          "type": "uint256"
        }
      ],
      "name": "buyAllAmount",
      "outputs": [
        {
          "name": "fill_amt",
          "type": "uint256"
        }
      ],
      "payable": false,
      "stateMutability": "nonpayable",
      "type": "function"
    },
    {
      "constant": true,
      "inputs": [
        {
          "name": "buy_gem",
          "type": "address"
        },
        {
          "name": "pay_gem",
          "type": "address"
        },
        {
          "name": "pay_amt",
          "type": "uint256"
        }
      ],
      "name": "getBuyAmount",
      "outputs": [
        {
          "name": "fill_amt",
          "type": "uint256"
        }
      ],
      "payable": false,
      "stateMutability": "view",
      "type": "function"
    },
    {
      "constant": true,
      "inputs": [
        {
          "name": "pay_gem",
          "type": "address"
        },
        {
          "name": "buy_gem",
          "type": "address"
        },
        {
          "name": "buy_amt",
          "type": "uint256"
        }
      ],
      "name": "getPayAmount",
      "outputs": [
        {
          "name": "fill_amt",
          "type": "uint256"
        }
      ],
      "payable": false,
      "stateMutability": "view",
      "type": "function"
    }
  ],
  "bytecode": "0x608060405260048054605860020a60ff0219605060020a60ff02199091166a010000000000000000000017166b01000000000000000000000017905534801561004757600080fd5b50604051602080614181833981016040819052905160018054600160a060020a0319163390811790915590918291907fce241d7ca1f669fee44b6fc00b8eba2df3bb514eed0f6f668f8f89096e81ed9490600090a26004805467ffffffffffffffff9092166101000268ffffffffffffffff0019909216919091179055506140ad806100d46000396000f30060806040526004361061023a5763ffffffff7c010000000000000000000000000000000000000000000000000000000060003504166301492a0b811461023f5780630374fc6f146102685780630621b4f6146102ae57806307da68f5146102e9578063093f51981461030057806313af40351461034f578063144a27521461037d5780631b33d412146103b45780631d834a1b146103f2578063232cae0b1461040d5780632aed19051461042257806340e58ee51461043c5780634579268a14610454578063467f0b7b146104aa57806349606455146104c2578063511fa487146104ef578063557ed1ba1461051d57806361f54a791461054f5780636377ebca14610567578063677170e11461057c57806374c1d7d3146105b057806375f12b21146105e4578063779997c3146105f95780637a9e5e4b146106115780637ca9429a1461063f5780638185402b1461067357806382afd23b146106ae5780638a72ea6a146106c65780638af82a2e146107355780638da5cb5b1461074a578063911550f41461078857806391be90c8146107a0578063943911bc146107ce578063a78d4316146107e6578063b4f9b6c8146107fe578063bf7c734e14610816578063bf7e214f14610847578063c2b6b58c1461085c578063c2d526aa14610871578063c41a360a146108a7578063d2b420ce146108bf578063d6f15469146108d7578063d6febde8146108f1578063e1a6f0141461090c578063f09ea2a61461094f578063f582d2931461098a578063ff1fd9741461099f575b600080fd5b34801561024b57600080fd5b506102546109d6565b604080519115158252519081900360200190f35b34801561027457600080fd5b5061029c73ffffffffffffffffffffffffffffffffffffffff600435811690602435166109ee565b60408051918252519081900360200190f35b3480156102ba57600080fd5b5061029c73ffffffffffffffffffffffffffffffffffffffff6004358116906024359060443516606435610a28565b3480156102f557600080fd5b506102fe610be0565b005b34801561030c57600080fd5b5061029c73ffffffffffffffffffffffffffffffffffffffff600435811690602435166fffffffffffffffffffffffffffffffff60443581169060643516610cb1565b34801561035b57600080fd5b506102fe73ffffffffffffffffffffffffffffffffffffffff60043516610cec565b34801561038957600080fd5b5061029c73ffffffffffffffffffffffffffffffffffffffff60043581169060243516604435610dfc565b3480156103c057600080fd5b5061029c60043573ffffffffffffffffffffffffffffffffffffffff6024358116906044359060643516608435610ec8565b3480156103fe57600080fd5b50610254600435602435610ef5565b34801561041957600080fd5b5061029c610fe9565b34801561042e57600080fd5b506102546004351515610fef565b34801561044857600080fd5b50610254600435611112565b34801561046057600080fd5b5061046c600435611251565b6040805194855273ffffffffffffffffffffffffffffffffffffffff9384166020860152848101929092529091166060830152519081900360800190f35b3480156104b657600080fd5b506102546004356112fd565b3480156104ce57600080fd5b506102fe6004356fffffffffffffffffffffffffffffffff60243516611443565b3480156104fb57600080fd5b5061029c73ffffffffffffffffffffffffffffffffffffffff6004351661146e565b34801561052957600080fd5b50610532611496565b6040805167ffffffffffffffff9092168252519081900360200190f35b34801561055b57600080fd5b5061029c60043561149a565b34801561057357600080fd5b506105326114ac565b34801561058857600080fd5b5061029c73ffffffffffffffffffffffffffffffffffffffff600435811690602435166114c1565b3480156105bc57600080fd5b5061029c73ffffffffffffffffffffffffffffffffffffffff600435811690602435166114de565b3480156105f057600080fd5b506102546114fb565b34801561060557600080fd5b506102fe600435611511565b34801561061d57600080fd5b506102fe73ffffffffffffffffffffffffffffffffffffffff6004351661170b565b34801561064b57600080fd5b5061029c73ffffffffffffffffffffffffffffffffffffffff60043581169060243516611817565b34801561067f57600080fd5b5061029c73ffffffffffffffffffffffffffffffffffffffff600435811690602435906044351660643561184f565b3480156106ba57600080fd5b506102546004356119ec565b3480156106d257600080fd5b506106de600435611a24565b6040805196875273ffffffffffffffffffffffffffffffffffffffff9586166020880152868101949094529184166060860152909216608084015267ffffffffffffffff90911660a0830152519081900360c00190f35b34801561074157600080fd5b5061029c611a94565b34801561075657600080fd5b5061075f611a9a565b6040805173ffffffffffffffffffffffffffffffffffffffff9092168252519081900360200190f35b34801561079457600080fd5b5061029c600435611ab6565b3480156107ac57600080fd5b5061029c73ffffffffffffffffffffffffffffffffffffffff60043516611ac8565b3480156107da57600080fd5b5061029c600435611ada565b3480156107f257600080fd5b5061029c600435611aef565b34801561080a57600080fd5b506102fe600435611b01565b34801561082257600080fd5b5061025473ffffffffffffffffffffffffffffffffffffffff60043516602435611b18565b34801561085357600080fd5b5061075f611c8f565b34801561086857600080fd5b50610254611cab565b34801561087d57600080fd5b50610889600435611cf2565b60408051938452602084019290925282820152519081900360600190f35b3480156108b357600080fd5b5061075f600435611d13565b3480156108cb57600080fd5b50610254600435611d3e565b3480156108e357600080fd5b506102546004351515611dbc565b3480156108fd57600080fd5b50610254600435602435611ede565b34801561091857600080fd5b5061029c60043573ffffffffffffffffffffffffffffffffffffffff602435811690604435906064351660843560a4351515611fb5565b34801561095b57600080fd5b5061029c60043573ffffffffffffffffffffffffffffffffffffffff60243581169060443590606435166120b3565b34801561099657600080fd5b5061025461215e565b3480156109ab57600080fd5b5061029c73ffffffffffffffffffffffffffffffffffffffff60043581169060243516604435612175565b6004546b010000000000000000000000900460ff1681565b73ffffffffffffffffffffffffffffffffffffffff8083166000908152600660209081526040808320938516835292905220545b92915050565b6004546000908190819060ff1615610aa157604080517f08c379a000000000000000000000000000000000000000000000000000000000815260206004820152601260248201527f5265656e7472616e637920617474656d70740000000000000000000000000000604482015290519081900360640190fd5b6000861115610bc957610ab485886109ee565b9150811515610ac257600080fd5b600082815260036020526040902060028101549054610ae1919061222e565b86670de0b6b3a7640000021015610af757610bc9565b6000828152600360205260409020600201548610610b6b57600082815260036020526040902054610b2990849061225f565b600083815260036020526040902060020154909350610b499087906122d1565b600083815260036020526040902054909650610b66908390611443565b610bc4565b60008281526003602052604090208054600290910154633b9aca0091610b9d9189840291610b9891612343565b61235f565b811515610ba657fe5b049050610bb3838261225f565b9250610bbf8282611443565b600095505b610aa1565b83831015610bd657600080fd5b5050949350505050565b610c0e336000357fffffffff000000000000000000000000000000000000000000000000000000001661238f565b1515610c7b57604080517f08c379a000000000000000000000000000000000000000000000000000000000815260206004820152601460248201527f64732d617574682d756e617574686f72697a6564000000000000000000000000604482015290519081900360640190fd5b600480547fffffffffffffffffffffffffffffffffffffffffffff00ffffffffffffffffff166901000000000000000000179055565b6000610ce3836fffffffffffffffffffffffffffffffff1686846fffffffffffffffffffffffffffffffff16876120b3565b95945050505050565b610d1a336000357fffffffff000000000000000000000000000000000000000000000000000000001661238f565b1515610d8757604080517f08c379a000000000000000000000000000000000000000000000000000000000815260206004820152601460248201527f64732d617574682d756e617574686f72697a6564000000000000000000000000604482015290519081900360640190fd5b600180547fffffffffffffffffffffffff00000000000000000000000000000000000000001673ffffffffffffffffffffffffffffffffffffffff83811691909117918290556040519116907fce241d7ca1f669fee44b6fc00b8eba2df3bb514eed0f6f668f8f89096e81ed9490600090a250565b600080610e0985856109ee565b90505b600081815260036020526040902060020154831115610e8657600081815260036020526040902054610e3f90839061225f565b600082815260036020526040902060020154909250610e5f9084906122d1565b92506000831115610e8157610e7381611ada565b9050801515610e8157600080fd5b610e0c565b60008181526003602052604090208054600290910154610ce3918491633b9aca0091610eb99188840291610b9891612343565b811515610ec257fe5b0461225f565b6000610ed2611cab565b15610edc57600080fd5b610eeb86868686866000611fb5565b9695505050505050565b60045460009060ff1615610f6a57604080517f08c379a000000000000000000000000000000000000000000000000000000000815260206004820152601260248201527f5265656e7472616e637920617474656d70740000000000000000000000000000604482015290519081900360640190fd5b610f7383611d3e565b15610f7d57600080fd5b610f86836119ec565b1515610f9157600080fd5b610f9a836124dd565b50610fa58383612585565b604080513381526020810185905281517f6d5c16212bdea16850dce4d9fa2314c446bd30ce84700d9c36c7677c6d283940929181900390910190a150600192915050565b60025481565b600061101f336000357fffffffff000000000000000000000000000000000000000000000000000000001661238f565b151561108c57604080517f08c379a000000000000000000000000000000000000000000000000000000000815260206004820152601460248201527f64732d617574682d756e617574686f72697a6564000000000000000000000000604482015290519081900360640190fd5b600480548315156b0100000000000000000000009081027fffffffffffffffffffffffffffffffffffffffff00ffffffffffffffffffffff9092169190911791829055604080519190920460ff161515815290517fea11e00ec1642be9b494019b756440e2c57dbe9e59242c4f9c64ce33fb4f41d99181900360200190a1506001919050565b60008161111e816119ec565b151561112957600080fd5b611131611cab565b8061116f575061114081611d13565b73ffffffffffffffffffffffffffffffffffffffff163373ffffffffffffffffffffffffffffffffffffffff16145b151561117a57600080fd5b60045460ff16156111ec57604080517f08c379a000000000000000000000000000000000000000000000000000000000815260206004820152601260248201527f5265656e7472616e637920617474656d70740000000000000000000000000000604482015290519081900360640190fd5b6004546b010000000000000000000000900460ff16156112415761120f83611d3e565b1561122d5761121d836127a1565b151561122857600080fd5b611241565b611236836124dd565b151561124157600080fd5b61124a836129b3565b9392505050565b60008060008061125f61404c565b5050506000928352505060036020818152604092839020835160c0810185528154808252600183015473ffffffffffffffffffffffffffffffffffffffff90811694830185905260028401549683018790529483015485166060830181905260049093015494851660808301527401000000000000000000000000000000000000000090940467ffffffffffffffff1660a090910152919390929190565b60045460009060ff161561137257604080517f08c379a000000000000000000000000000000000000000000000000000000000815260206004820152601260248201527f5265656e7472616e637920617474656d70740000000000000000000000000000604482015290519081900360640190fd5b61137b826119ec565b158015611398575060008281526005602052604090206002015415155b80156113d657506000828152600560205260409020600201547ffffffffffffffffffffffffffffffffffffffffffffffffffffffffffffffff64301115b15156113e157600080fd5b60008281526005602090815260408083208381556001810184905560020192909255815133815290810184905281517fcb9d6176c6aac6478ebb9a2754cdce22a944de29ed1f2642f8613884eba4b40c929181900390910190a1506001919050565b61145f826fffffffffffffffffffffffffffffffff8316611ede565b151561146a57600080fd5b5050565b73ffffffffffffffffffffffffffffffffffffffff1660009081526008602052604090205490565b4290565b60009081526009602052604090205490565b600454610100900467ffffffffffffffff1681565b600760209081526000928352604080842090915290825290205481565b600660209081526000928352604080842090915290825290205481565b6004546901000000000000000000900460ff1681565b60008161151d816119ec565b151561152857600080fd5b611530611cab565b1561153a57600080fd5b60008381526003602081815260409283902060048101546001820154919093015484516c0100000000000000000000000073ffffffffffffffffffffffffffffffffffffffff9384168102828601529183169190910260348201528451602881830301815260489091019485905280518897509190931693918291908401908083835b602083106115fa57805182527fffffffffffffffffffffffffffffffffffffffffffffffffffffffffffffffe090920191602091820191016115bd565b5181517fffffffffffffffffffffffffffffffffffffffffffffffffffffffffffffffff60209485036101000a019081169019919091161790526040805194909201849003842060008a81526003808452908490206001810154918101548154600283015460049093015473ffffffffffffffffffffffffffffffffffffffff9485168a5291909316948801949094526fffffffffffffffffffffffffffffffff9182168786015216606086015267ffffffffffffffff7401000000000000000000000000000000000000000090920491909116608085015290519094508893507f70a14c213064359ede031fd2a1645a11ce2ec825ffe6ab5cfb5b160c3ef4d0a29281900360a0019150a4505050565b611739336000357fffffffff000000000000000000000000000000000000000000000000000000001661238f565b15156117a657604080517f08c379a000000000000000000000000000000000000000000000000000000000815260206004820152601460248201527f64732d617574682d756e617574686f72697a6564000000000000000000000000604482015290519081900360640190fd5b600080547fffffffffffffffffffffffff00000000000000000000000000000000000000001673ffffffffffffffffffffffffffffffffffffffff838116919091178083556040519116917f1abebea81bfa2637f28358c371278fb15ede7ea8dd28d2e03b112ff6d936ada491a250565b73ffffffffffffffffffffffffffffffffffffffff918216600090815260076020908152604080832093909416825291909152205490565b600454600090819060ff16156118c657604080517f08c379a000000000000000000000000000000000000000000000000000000000815260206004820152601260248201527f5265656e7472616e637920617474656d70740000000000000000000000000000604482015290519081900360640190fd5b60008511156119d6576118d986856109ee565b90508015156118e757600080fd5b60008181526003602052604090208054600290910154611907919061222e565b85670de0b6b3a764000002101561191d576119d6565b600081815260036020526040902054851061198e5760008181526003602052604090206002015461194f90839061225f565b60008281526003602052604090205490925061196c9086906122d1565b600082815260036020526040902054909550611989908290611443565b6119d1565b6000818152600360205260409020600281015490546119c0918491633b9aca0091610eb9918a840291610b9891612343565b91506119cc8186611443565b600094505b6118c6565b828211156119e357600080fd5b50949350505050565b60009081526003602052604081206004015474010000000000000000000000000000000000000000900467ffffffffffffffff161190565b600360208190526000918252604090912080546001820154600283015493830154600490930154919373ffffffffffffffffffffffffffffffffffffffff9182169390929082169181169074010000000000000000000000000000000000000000900467ffffffffffffffff1686565b600a5490565b60015473ffffffffffffffffffffffffffffffffffffffff1681565b60009081526005602052604090205490565b60086020526000908152604090205481565b60009081526005602052604090206001015490565b60096020526000908152604090205481565b611b0a81611112565b1515611b1557600080fd5b50565b6000611b48336000357fffffffff000000000000000000000000000000000000000000000000000000001661238f565b1515611bb557604080517f08c379a000000000000000000000000000000000000000000000000000000000815260206004820152601460248201527f64732d617574682d756e617574686f72697a6564000000000000000000000000604482015290519081900360640190fd5b604080513480825260208201838152369383018490526004359360243593849286923392600080357fffffffff0000000000000000000000000000000000000000000000000000000016938893919290606082018484808284376040519201829003965090945050505050a473ffffffffffffffffffffffffffffffffffffffff86166000818152600860209081526040918290208890558151928352820187905280517fc28d56449b0bb31e64ee7487e061f57a2e72aea8019d810832f26dda099823d09281900390910190a150600195945050505050565b60005473ffffffffffffffffffffffffffffffffffffffff1681565b6004546000906901000000000000000000900460ff1680611ced5750600454610100900467ffffffffffffffff16611ce1611496565b67ffffffffffffffff16115b905090565b60056020526000908152604090208054600182015460029092015490919083565b60009081526003602052604090206004015473ffffffffffffffffffffffffffffffffffffffff1690565b600081815260056020526040812054151580611d6a575060008281526005602052604090206001015415155b80610a225750506000818152600360208181526040808420600181015473ffffffffffffffffffffffffffffffffffffffff908116865260068452828620919094015490931684529190529020541490565b6000611dec336000357fffffffff000000000000000000000000000000000000000000000000000000001661238f565b1515611e5957604080517f08c379a000000000000000000000000000000000000000000000000000000000815260206004820152601460248201527f64732d617574682d756e617574686f72697a6564000000000000000000000000604482015290519081900360640190fd5b600480548315156a01000000000000000000009081027fffffffffffffffffffffffffffffffffffffffffff00ffffffffffffffffffff9092169190911791829055604080519190920460ff161515815290517f7089e4f0bcc948f9f723a361590c32d9c2284da7ab1981b1249ad2edb9f953c19181900360200190a1506001919050565b600082611eea816119ec565b1515611ef557600080fd5b611efd611cab565b15611f0757600080fd5b60045460ff1615611f7957604080517f08c379a000000000000000000000000000000000000000000000000000000000815260206004820152601260248201527f5265656e7472616e637920617474656d70740000000000000000000000000000604482015290519081900360640190fd5b6004546b010000000000000000000000900460ff16611fa157611f9c8484612fa6565b611fab565b611fab84846136c4565b91505b5092915050565b6000611fbf611cab565b15611fc957600080fd5b60045460ff161561203b57604080517f08c379a000000000000000000000000000000000000000000000000000000000815260206004820152601260248201527f5265656e7472616e637920617474656d70740000000000000000000000000000604482015290519081900360640190fd5b73ffffffffffffffffffffffffffffffffffffffff861660009081526008602052604090205487101561206d57600080fd5b6004546b010000000000000000000000900460ff161561209c57612095878787878787613735565b9050610eeb565b6120a887878787613892565b979650505050505050565b60045460009060ff161561212857604080517f08c379a000000000000000000000000000000000000000000000000000000000815260206004820152601260248201527f5265656e7472616e637920617474656d70740000000000000000000000000000604482015290519081900360640190fd5b6004546b010000000000000000000000900460ff166121525761214d85858585613892565b610ce3565b610ce385858585613d44565b6004546a0100000000000000000000900460ff1681565b60008061218284866109ee565b90505b6000818152600360205260409020548311156121fc576000818152600360205260409020600201546121b890839061225f565b6000828152600360205260409020549092506121d59084906122d1565b925060008311156121f7576121e981611ada565b90508015156121f757600080fd5b612185565b600081815260036020526040902060028101549054610ce3918491633b9aca0091610eb99188840291610b9891612343565b60008161224e61224685670de0b6b3a7640000613ddb565b600285610ec2565b81151561225757fe5b049392505050565b80820182811015610a2257604080517f08c379a000000000000000000000000000000000000000000000000000000000815260206004820152601460248201527f64732d6d6174682d6164642d6f766572666c6f77000000000000000000000000604482015290519081900360640190fd5b80820382811115610a2257604080517f08c379a000000000000000000000000000000000000000000000000000000000815260206004820152601560248201527f64732d6d6174682d7375622d756e646572666c6f770000000000000000000000604482015290519081900360640190fd5b60008161224e612246856b033b2e3c9fd0803ce8000000613ddb565b60006b033b2e3c9fd0803ce800000061224e61237b8585613ddb565b60026b033b2e3c9fd0803ce8000000610ec2565b600073ffffffffffffffffffffffffffffffffffffffff83163014156123b757506001610a22565b60015473ffffffffffffffffffffffffffffffffffffffff848116911614156123e257506001610a22565b60005473ffffffffffffffffffffffffffffffffffffffff16151561240957506000610a22565b600054604080517fb700961300000000000000000000000000000000000000000000000000000000815273ffffffffffffffffffffffffffffffffffffffff86811660048301523060248301527fffffffff00000000000000000000000000000000000000000000000000000000861660448301529151919092169163b7009613916064808301926020929190829003018186803b1580156124aa57600080fd5b505afa1580156124be573d6000803e3d6000fd5b505050506040513d60208110156124d457600080fd5b50519050610a22565b600a54600090806124ed84611d3e565b156124f757600080fd5b83600a54141561251e5760008481526009602052604081208054600a55556001925061257e565b5b60008211801561252f5750838214155b1561254a57506000818152600960205260409020549061251f565b81841461255a576000925061257e565b60008481526009602052604080822080548484529183209190915585825255600192505b5050919050565b6000806000612593856119ec565b151561259e57600080fd5b60008581526003602081905260409091209081015460019091015473ffffffffffffffffffffffffffffffffffffffff91821694501691508315806125e957506125e784611d3e565b155b156125fe576125f785613e65565b93506126a3565b6126088585613efb565b9350831580159061268e5750600085815260036020526040808220600190810154878452919092209091015473ffffffffffffffffffffffffffffffffffffffff908116911614158061268e575060008581526003602081905260408083208201548784529220015473ffffffffffffffffffffffffffffffffffffffff908116911614155b156126a357600093506126a085613e65565b93505b83156126cf57506000838152600560205260408082206001018054908790558683529120849055612709565b5073ffffffffffffffffffffffffffffffffffffffff81811660009081526006602090815260408083209386168352929052208054908590555b801561272d5760008181526005602052604080822087905586825290206001018190555b73ffffffffffffffffffffffffffffffffffffffff808316600090815260076020908152604080832093871683529281529082902080546001019055815187815291517f20fb9bad86c18f7e22e8065258790d9416a7d2df8ff05f80f82c46d38b925acd9281900390910190a15050505050565b60008181526003602081815260408084209283015460019093015473ffffffffffffffffffffffffffffffffffffffff9081168086526007845282862091909416808652925283205490919083106127f857600080fd5b60008481526005602052604090206002015415801561281b575061281b84611d3e565b151561282657600080fd5b73ffffffffffffffffffffffffffffffffffffffff80821660009081526006602090815260408083209386168352929052205484146128a657600084815260056020526040808220548252902060010154841461288257600080fd5b600084815260056020526040808220600180820154915484529190922001556128e9565b60008481526005602090815260408083206001015473ffffffffffffffffffffffffffffffffffffffff8086168552600684528285209087168552909252909120555b6000848152600560205260409020600101541561294057600084815260056020526040808220600101548252902054841461292357600080fd5b600084815260056020526040808220805460019091015483529120555b73ffffffffffffffffffffffffffffffffffffffff908116600090815260076020908152604080832094909316825292835281812080547fffffffffffffffffffffffffffffffffffffffffffffffffffffffffffffffff01905593845260059091529091204360029091015550600190565b60006129bd61404c565b826129c7816119ec565b15156129d257600080fd5b6129da611cab565b80612a1857506129e981611d13565b73ffffffffffffffffffffffffffffffffffffffff163373ffffffffffffffffffffffffffffffffffffffff16145b1515612a2357600080fd5b60045460ff1615612a3357600080fd5b6001600460006101000a81548160ff0219169083151502179055506003600085815260200190815260200160002060c06040519081016040529081600082015481526020016001820160009054906101000a900473ffffffffffffffffffffffffffffffffffffffff1673ffffffffffffffffffffffffffffffffffffffff1673ffffffffffffffffffffffffffffffffffffffff168152602001600282015481526020016003820160009054906101000a900473ffffffffffffffffffffffffffffffffffffffff1673ffffffffffffffffffffffffffffffffffffffff1673ffffffffffffffffffffffffffffffffffffffff1681526020016004820160009054906101000a900473ffffffffffffffffffffffffffffffffffffffff1673ffffffffffffffffffffffffffffffffffffffff1673ffffffffffffffffffffffffffffffffffffffff1681526020016004820160149054906101000a900467ffffffffffffffff1667ffffffffffffffff1667ffffffffffffffff16815250509150600360008581526020019081526020016000206000808201600090556001820160006101000a81549073ffffffffffffffffffffffffffffffffffffffff021916905560028201600090556003820160006101000a81549073ffffffffffffffffffffffffffffffffffffffff02191690556004820160006101000a81549073ffffffffffffffffffffffffffffffffffffffff02191690556004820160146101000a81549067ffffffffffffffff02191690555050816020015173ffffffffffffffffffffffffffffffffffffffff1663a9059cbb836080015184600001516040518363ffffffff167c0100000000000000000000000000000000000000000000000000000000028152600401808373ffffffffffffffffffffffffffffffffffffffff1673ffffffffffffffffffffffffffffffffffffffff16815260200182815260200192505050602060405180830381600087803b158015612d1c57600080fd5b505af1158015612d30573d6000803e3d6000fd5b505050506040513d6020811015612d4657600080fd5b50511515612d5357600080fd5b6040805185815290517fa2c251311b1a7a475913900a2a73dc9789a21b04bc737e050bbc506dd4eb34889181900360200190a1816080015173ffffffffffffffffffffffffffffffffffffffff1682602001518360600151604051602001808373ffffffffffffffffffffffffffffffffffffffff1673ffffffffffffffffffffffffffffffffffffffff166c010000000000000000000000000281526014018273ffffffffffffffffffffffffffffffffffffffff1673ffffffffffffffffffffffffffffffffffffffff166c01000000000000000000000000028152601401925050506040516020818303038152906040526040518082805190602001908083835b60208310612e9457805182527fffffffffffffffffffffffffffffffffffffffffffffffffffffffffffffffe09092019160209182019101612e57565b5181517fffffffffffffffffffffffffffffffffffffffffffffffffffffffffffffffff60209485036101000a0190811690199190911617905260408051949092018490038420898201516060808c01518c518d87015173ffffffffffffffffffffffffffffffffffffffff9485168a5293909116948801949094526fffffffffffffffffffffffffffffffff9384168786015292169185019190915267ffffffffffffffff4216608085015290519094508993507f9577941d28fff863bfbee4694a6a4a56fb09e169619189d2eaa750b5b48199959281900360a0019150a45050600480547fffffffffffffffffffffffffffffffffffffffffffffffffffffffffffffff00169055506001919050565b6000612fb061404c565b600084612fbc816119ec565b1515612fc757600080fd5b612fcf611cab565b15612fd957600080fd5b60045460ff1615612fe957600080fd5b6004805460017fffffffffffffffffffffffffffffffffffffffffffffffffffffffffffffff0090911681178255600088815260036020818152604092839020835160c08101855281548082529582015473ffffffffffffffffffffffffffffffffffffffff90811693820193909352600282015494810185905292810154821660608401529094015493841660808201527401000000000000000000000000000000000000000090930467ffffffffffffffff1660a0840152919450906130b2908790613ddb565b8115156130bb57fe5b0491506fffffffffffffffffffffffffffffffff821682146130dc57600080fd5b6fffffffffffffffffffffffffffffffff851685146130fa57600080fd5b841580613105575081155b806131105750825185115b8061311e5750826040015182115b1561312c5760009350613693565b825161313890866122d1565b600087815260036020526040908190209190915583015161315990836122d1565b6000878152600360209081526040808320600201939093556060860151608087015184517f23b872dd00000000000000000000000000000000000000000000000000000000815233600482015273ffffffffffffffffffffffffffffffffffffffff91821660248201526044810188905294519116936323b872dd9360648083019493928390030190829087803b1580156131f357600080fd5b505af1158015613207573d6000803e3d6000fd5b505050506040513d602081101561321d57600080fd5b5051151561322a57600080fd5b602080840151604080517fa9059cbb00000000000000000000000000000000000000000000000000000000815233600482015260248101899052905173ffffffffffffffffffffffffffffffffffffffff9092169263a9059cbb926044808401938290030181600087803b1580156132a157600080fd5b505af11580156132b5573d6000803e3d6000fd5b505050506040513d60208110156132cb57600080fd5b505115156132d857600080fd5b6040805187815290517fa2c251311b1a7a475913900a2a73dc9789a21b04bc737e050bbc506dd4eb34889181900360200190a13373ffffffffffffffffffffffffffffffffffffffff16836080015173ffffffffffffffffffffffffffffffffffffffff1684602001518560600151604051602001808373ffffffffffffffffffffffffffffffffffffffff1673ffffffffffffffffffffffffffffffffffffffff166c010000000000000000000000000281526014018273ffffffffffffffffffffffffffffffffffffffff1673ffffffffffffffffffffffffffffffffffffffff166c01000000000000000000000000028152601401925050506040516020818303038152906040526040518082805190602001908083835b6020831061343057805182527fffffffffffffffffffffffffffffffffffffffffffffffffffffffffffffffe090920191602091820191016133f3565b6001836020036101000a0380198251168184511680821785525050505050509050019150506040518091039020600019167f3383e3357c77fd2e3a4b30deea81179bc70a795d053d14d5b7f2f01d0fd4596f89600102876020015188606001518b89426040518087600019166000191681526020018673ffffffffffffffffffffffffffffffffffffffff1673ffffffffffffffffffffffffffffffffffffffff1681526020018573ffffffffffffffffffffffffffffffffffffffff1673ffffffffffffffffffffffffffffffffffffffff168152602001846fffffffffffffffffffffffffffffffff166fffffffffffffffffffffffffffffffff168152602001836fffffffffffffffffffffffffffffffff166fffffffffffffffffffffffffffffffff1681526020018267ffffffffffffffff1667ffffffffffffffff168152602001965050505050505060405180910390a4826060015173ffffffffffffffffffffffffffffffffffffffff16836020015173ffffffffffffffffffffffffffffffffffffffff167f819e390338feffe95e2de57172d6faf337853dfd15c7a09a32d76f7fd24438758785604051808381526020018281526020019250505060405180910390a3600086815260036020526040902054151561368e57600086815260036020819052604082208281556001810180547fffffffffffffffffffffffff00000000000000000000000000000000000000009081169091556002820193909355908101805490921690915560040180547fffffffff000000000000000000000000000000000000000000000000000000001690555b600193505b5050600480547fffffffffffffffffffffffffffffffffffffffffffffffffffffffffffffff001690555092915050565b6004546000906a0100000000000000000000900460ff1615156136e657600080fd5b60008381526003602052604090205482148015613707575061370783611d3e565b1561371757613715836127a1565b505b6137218383612fa6565b151561372c57600080fd5b50600192915050565b60008060008060005b73ffffffffffffffffffffffffffffffffffffffff8089166000908152600660209081526040808320938e16835292905290812054111561385757505073ffffffffffffffffffffffffffffffffffffffff8087166000908152600660209081526040808320938c1683529281528282205480835260039091529190206002810154905491935090856137d25760006137da565b808b8a840101015b6137e48c83613ddb565b016137ef838b613ddb565b11156137fa57613857565b61380d84613808838c613fd7565b611ede565b508892506138248961381f838c613fd7565b6122d1565b9850826138318a8d613ddb565b81151561383a57fe5b049a508a1580613848575088155b1561385257613857565b61373e565b600089118015613867575060008b115b15613884576138788b8b8b8b613892565b94506138848588612585565b505050509695505050505050565b600061389c61404c565b6138a4611cab565b156138ae57600080fd5b60045460ff16156138be57600080fd5b600480547fffffffffffffffffffffffffffffffffffffffffffffffffffffffffffffff001660011790556fffffffffffffffffffffffffffffffff8616861461390757600080fd5b6fffffffffffffffffffffffffffffffff8416841461392557600080fd5b6000861161393257600080fd5b73ffffffffffffffffffffffffffffffffffffffff8516151561395457600080fd5b6000841161396157600080fd5b73ffffffffffffffffffffffffffffffffffffffff8316151561398357600080fd5b73ffffffffffffffffffffffffffffffffffffffff85811690841614156139a957600080fd5b85815273ffffffffffffffffffffffffffffffffffffffff8086166020830152604082018590528316606082015233608082015267ffffffffffffffff421660a08201526139f5613fee565b6000818152600360208181526040808420865181558287015160018201805473ffffffffffffffffffffffffffffffffffffffff9283167fffffffffffffffffffffffff000000000000000000000000000000000000000091821617909155838901516002840155606089015195830180549683169682169690961790955560808801516004928301805460a08b015167ffffffffffffffff1674010000000000000000000000000000000000000000027fffffffff0000000000000000ffffffffffffffffffffffffffffffffffffffff9385169190981617919091169590951790945581517f23b872dd0000000000000000000000000000000000000000000000000000000081523391810191909152306024820152604481018c90529051949650918916936323b872dd936064808501948390030190829087803b158015613b3f57600080fd5b505af1158015613b53573d6000803e3d6000fd5b505050506040513d6020811015613b6957600080fd5b50511515613b7657600080fd5b6040805183815290517fa2c251311b1a7a475913900a2a73dc9789a21b04bc737e050bbc506dd4eb34889181900360200190a16040805173ffffffffffffffffffffffffffffffffffffffff8781166c010000000000000000000000009081026020808501919091529187160260348301528251808303602801815260489092019283905281513393918291908401908083835b60208310613c4757805182527fffffffffffffffffffffffffffffffffffffffffffffffffffffffffffffffe09092019160209182019101613c0a565b5181517fffffffffffffffffffffffffffffffffffffffffffffffffffffffffffffffff60209485036101000a019081169019919091161790526040805194909201849003842073ffffffffffffffffffffffffffffffffffffffff808e1686528b16918501919091526fffffffffffffffffffffffffffffffff808e16858401528b16606085015267ffffffffffffffff4216608085015290519094508793507f773ff502687307abfa024ac9f62f9752a0d210dac2ffd9a29e38e12e2ea82c829281900360a0019150a450600480547fffffffffffffffffffffffffffffffffffffffffffffffffffffffffffffff00169055949350505050565b73ffffffffffffffffffffffffffffffffffffffff8316600090815260086020526040812054851015613d7657600080fd5b613d8285858585613892565b600a80546000838152600960209081526040918290209290925591839055815183815291519293507f8173832a493e0a3989e521458e55bfe9feac9f9b675a94e100b9d5a85f81486292918290030190a1949350505050565b6000811580613df8575050808202828282811515613df557fe5b04145b1515610a2257604080517f08c379a000000000000000000000000000000000000000000000000000000000815260206004820152601460248201527f64732d6d6174682d6d756c2d6f766572666c6f77000000000000000000000000604482015290519081900360640190fd5b600080808080808611613e7757600080fd5b50505060008381526003602081815260408084209283015460019093015473ffffffffffffffffffffffffffffffffffffffff9081168086526006845282862091909416808652925283205490935090915b8115801590613edd5750613edd8683613ffc565b15610ce3575060008181526005602052604090206001015490613ec9565b600080808411613f0a57600080fd5b8215801590613f1f5750613f1d836119ec565b155b15613f3d576000928352600560205260409092206001015491613f0a565b821515613f5457613f4d84613e65565b9150611fae565b613f5e8484613ffc565b15613f9e575b8215801590613f785750613f788484613ffc565b15613f96575060008281526005602052604090206001015491613f64565b809150611fae565b8215801590613fb45750613fb28484613ffc565b155b15613fcf576000928352600560205260409092205491613f9e565b829150611fae565b600081831115613fe7578161124a565b5090919050565b600280546001019081905590565b60008181526003602052604080822060020154848352908220546140209190613ddb565b600084815260036020526040808220600201548583529120546140439190613ddb565b10159392505050565b6040805160c081018252600080825260208201819052918101829052606081018290526080810182905260a0810191909152905600a165627a7a7230582035969a3cedd7a2e3d83697697993cd764841f5852230bece8facb32720b43f4d0029",
  "source": "/// matching_market.sol\n\n//\n// This program is free software: you can redistribute it and/or modify\n// it under the terms of the GNU Affero General Public License as published by\n// the Free Software Foundation, either version 3 of the License, or\n// (at your option) any later version.\n//\n// This program is distributed in the hope that it will be useful,\n// but WITHOUT ANY WARRANTY; without even the implied warranty of\n// MERCHANTABILITY or FITNESS FOR A PARTICULAR PURPOSE.  See the\n// GNU Affero General Public License for more details.\n//\n// You should have received a copy of the GNU Affero General Public License\n// along with this program.  If not, see <https://www.gnu.org/licenses/>.\n\npragma solidity 0.4.24;\npragma experimental \"v0.5.0\";\n\nimport \"./Note.sol\";\nimport \"./ExpiringMarket.sol\";\n\n\ncontract MatchingEvents {\n    event LogBuyEnabled(bool isEnabled);\n    event LogMinSell(address pay_gem, uint min_amount);\n    event LogMatchingEnabled(bool isEnabled);\n    event LogUnsortedOffer(uint id);\n    event LogSortedOffer(uint id);\n    event LogInsert(address keeper, uint id);\n    event LogDelete(address keeper, uint id);\n}\n\ncontract MatchingMarket is MatchingEvents, ExpiringMarket, DSNote {\n    bool public buyEnabled = true;      //buy enabled\n    bool public matchingEnabled = true; //true: enable matching,\n                                         //false: revert to expiring market\n    struct sortInfo {\n        uint next;  //points to id of next higher offer\n        uint prev;  //points to id of previous lower offer\n        uint delb;  //the blocknumber where this entry was marked for delete\n    }\n    mapping(uint => sortInfo) public _rank;                     //doubly linked lists of sorted offer ids\n    mapping(address => mapping(address => uint)) public _best;  //id of the highest offer for a token pair\n    mapping(address => mapping(address => uint)) public _span;  //number of offers stored for token pair in sorted orderbook\n    mapping(address => uint) public _dust;                      //minimum sell amount for a token to avoid dust offers\n    mapping(uint => uint) public _near;         //next unsorted offer id\n    uint _head;                                 //first unsorted offer id\n\n    constructor(uint64 close_time) ExpiringMarket(close_time) public {\n    }\n\n    // ---- Public entrypoints ---- //\n\n    function make(\n        ERC20    pay_gem,\n        ERC20    buy_gem,\n        uint128  pay_amt,\n        uint128  buy_amt\n    )\n        public\n        returns (bytes32)\n    {\n        return bytes32(offer(pay_amt, pay_gem, buy_amt, buy_gem));\n    }\n\n    function take(bytes32 id, uint128 maxTakeAmount) public {\n        require(buy(uint256(id), maxTakeAmount));\n    }\n\n    function kill(bytes32 id) public {\n        require(cancel(uint256(id)));\n    }\n\n    // Make a new offer. Takes funds from the caller into market escrow.\n    //\n    // If matching is enabled:\n    //     * creates new offer without putting it in\n    //       the sorted list.\n    //     * available to authorized contracts only!\n    //     * keepers should call insert(id,pos)\n    //       to put offer in the sorted list.\n    //\n    // If matching is disabled:\n    //     * calls expiring market's offer().\n    //     * available to everyone without authorization.\n    //     * no sorting is done.\n    //\n    function offer(\n        uint pay_amt,    //maker (ask) sell how much\n        ERC20 pay_gem,   //maker (ask) sell which token\n        uint buy_amt,    //taker (ask) buy how much\n        ERC20 buy_gem    //taker (ask) buy which token\n    )\n        public\n        returns (uint)\n    {\n        require(!locked, \"Reentrancy attempt\");\n        return matchingEnabled\n            ? _offeru(pay_amt, pay_gem, buy_amt, buy_gem)\n            : super.offer(pay_amt, pay_gem, buy_amt, buy_gem);\n    }\n\n    // Make a new offer. Takes funds from the caller into market escrow.\n    function offer(\n        uint pay_amt,    //maker (ask) sell how much\n        ERC20 pay_gem,   //maker (ask) sell which token\n        uint buy_amt,    //maker (ask) buy how much\n        ERC20 buy_gem,   //maker (ask) buy which token\n        uint pos         //position to insert offer, 0 should be used if unknown\n    )\n        public\n        can_offer\n        returns (uint)\n    {\n        return offer(pay_amt, pay_gem, buy_amt, buy_gem, pos, false);\n    }\n\n    function offer(\n        uint pay_amt,    //maker (ask) sell how much\n        ERC20 pay_gem,   //maker (ask) sell which token\n        uint buy_amt,    //maker (ask) buy how much\n        ERC20 buy_gem,   //maker (ask) buy which token\n        uint pos,        //position to insert offer, 0 should be used if unknown\n        bool rounding    //match \"close enough\" orders?\n    )\n        public\n        can_offer\n        returns (uint)\n    {\n        require(!locked, \"Reentrancy attempt\");\n        require(_dust[pay_gem] <= pay_amt);\n\n        if (matchingEnabled) {\n          return _matcho(pay_amt, pay_gem, buy_amt, buy_gem, pos, rounding);\n        }\n        return super.offer(pay_amt, pay_gem, buy_amt, buy_gem);\n    }\n\n    //Transfers funds from caller to offer maker, and from market to caller.\n    function buy(uint id, uint amount)\n        public\n        can_buy(id)\n        returns (bool)\n    {\n        require(!locked, \"Reentrancy attempt\");\n        return matchingEnabled\n            ? _buys(id, amount)\n            : super.buy(id, amount);\n    }\n\n    // Cancel an offer. Refunds offer maker.\n    function cancel(uint id)\n        public\n        can_cancel(id)\n        returns (bool success)\n    {\n        require(!locked, \"Reentrancy attempt\");\n        if (matchingEnabled) {\n            if (isOfferSorted(id)) {\n                require(_unsort(id));\n            } else {\n                require(_hide(id));\n            }\n        }\n        return super.cancel(id);    //delete the offer.\n    }\n\n    //insert offer into the sorted list\n    //keepers need to use this function\n    function insert(\n        uint id,   //maker (ask) id\n        uint pos   //position to insert into\n    )\n        public\n        returns (bool)\n    {\n        require(!locked, \"Reentrancy attempt\");\n        require(!isOfferSorted(id));    //make sure offers[id] is not yet sorted\n        require(isActive(id));          //make sure offers[id] is active\n\n        _hide(id);                      //remove offer from unsorted offers list\n        _sort(id, pos);                 //put offer into the sorted offers list\n        emit LogInsert(msg.sender, id);\n        return true;\n    }\n\n    //deletes _rank [id]\n    //  Function should be called by keepers.\n    function del_rank(uint id)\n        public\n        returns (bool)\n    {\n        require(!locked, \"Reentrancy attempt\");\n        require(!isActive(id) && _rank[id].delb != 0 && _rank[id].delb < block.number - 10);\n        delete _rank[id];\n        emit LogDelete(msg.sender, id);\n        return true;\n    }\n\n    //set the minimum sell amount for a token\n    //    Function is used to avoid \"dust offers\" that have\n    //    very small amount of tokens to sell, and it would\n    //    cost more gas to accept the offer, than the value\n    //    of tokens received.\n    function setMinSell(\n        ERC20 pay_gem,     //token to assign minimum sell amount to\n        uint dust          //maker (ask) minimum sell amount\n    )\n        public\n        auth\n        note\n        returns (bool)\n    {\n        _dust[pay_gem] = dust;\n        emit LogMinSell(pay_gem, dust);\n        return true;\n    }\n\n    //returns the minimum sell amount for an offer\n    function getMinSell(\n        ERC20 pay_gem      //token for which minimum sell amount is queried\n    )\n        public\n        constant\n        returns (uint)\n    {\n        return _dust[pay_gem];\n    }\n\n    //set buy functionality enabled/disabled\n    function setBuyEnabled(bool buyEnabled_) public auth returns (bool) {\n        buyEnabled = buyEnabled_;\n        emit LogBuyEnabled(buyEnabled);\n        return true;\n    }\n\n    //set matching enabled/disabled\n    //    If matchingEnabled true(default), then inserted offers are matched.\n    //    Except the ones inserted by contracts, because those end up\n    //    in the unsorted list of offers, that must be later sorted by\n    //    keepers using insert().\n    //    If matchingEnabled is false then MatchingMarket is reverted to ExpiringMarket,\n    //    and matching is not done, and sorted lists are disabled.\n    function setMatchingEnabled(bool matchingEnabled_) public auth returns (bool) {\n        matchingEnabled = matchingEnabled_;\n        emit LogMatchingEnabled(matchingEnabled);\n        return true;\n    }\n\n    //return the best offer for a token pair\n    //      the best offer is the lowest one if it's an ask,\n    //      and highest one if it's a bid offer\n    function getBestOffer(ERC20 sell_gem, ERC20 buy_gem) public constant returns(uint) {\n        return _best[sell_gem][buy_gem];\n    }\n\n    //return the next worse offer in the sorted list\n    //      the worse offer is the higher one if its an ask,\n    //      a lower one if its a bid offer,\n    //      and in both cases the newer one if they're equal.\n    function getWorseOffer(uint id) public constant returns(uint) {\n        return _rank[id].prev;\n    }\n\n    //return the next better offer in the sorted list\n    //      the better offer is in the lower priced one if its an ask,\n    //      the next higher priced one if its a bid offer\n    //      and in both cases the older one if they're equal.\n    function getBetterOffer(uint id) public constant returns(uint) {\n\n        return _rank[id].next;\n    }\n\n    //return the amount of better offers for a token pair\n    function getOfferCount(ERC20 sell_gem, ERC20 buy_gem) public constant returns(uint) {\n        return _span[sell_gem][buy_gem];\n    }\n\n    //get the first unsorted offer that was inserted by a contract\n    //      Contracts can't calculate the insertion position of their offer because it is not an O(1) operation.\n    //      Their offers get put in the unsorted list of offers.\n    //      Keepers can calculate the insertion position offchain and pass it to the insert() function to insert\n    //      the unsorted offer into the sorted list. Unsorted offers will not be matched, but can be bought with buy().\n    function getFirstUnsortedOffer() public constant returns(uint) {\n        return _head;\n    }\n\n    //get the next unsorted offer\n    //      Can be used to cycle through all the unsorted offers.\n    function getNextUnsortedOffer(uint id) public constant returns(uint) {\n        return _near[id];\n    }\n\n    function isOfferSorted(uint id) public constant returns(bool) {\n        return _rank[id].next != 0\n               || _rank[id].prev != 0\n               || _best[offers[id].pay_gem][offers[id].buy_gem] == id;\n    }\n\n    function sellAllAmount(ERC20 pay_gem, uint pay_amt, ERC20 buy_gem, uint min_fill_amount)\n        public\n        returns (uint fill_amt)\n    {\n        require(!locked, \"Reentrancy attempt\");\n        uint offerId;\n        while (pay_amt > 0) {                           //while there is amount to sell\n            offerId = getBestOffer(buy_gem, pay_gem);   //Get the best offer for the token pair\n            require(offerId != 0);                      //Fails if there are not more offers\n\n            // There is a chance that pay_amt is smaller than 1 wei of the other token\n            if (pay_amt * 1 ether < wdiv(offers[offerId].buy_amt, offers[offerId].pay_amt)) {\n                break;                                  //We consider that all amount is sold\n            }\n            if (pay_amt >= offers[offerId].buy_amt) {                       //If amount to sell is higher or equal than current offer amount to buy\n                fill_amt = add(fill_amt, offers[offerId].pay_amt);          //Add amount bought to acumulator\n                pay_amt = sub(pay_amt, offers[offerId].buy_amt);            //Decrease amount to sell\n                take(bytes32(offerId), uint128(offers[offerId].pay_amt));   //We take the whole offer\n            } else { // if lower\n                uint256 baux = rmul(pay_amt * 10 ** 9, rdiv(offers[offerId].pay_amt, offers[offerId].buy_amt)) / 10 ** 9;\n                fill_amt = add(fill_amt, baux);         //Add amount bought to acumulator\n                take(bytes32(offerId), uint128(baux));  //We take the portion of the offer that we need\n                pay_amt = 0;                            //All amount is sold\n            }\n        }\n        require(fill_amt >= min_fill_amount);\n    }\n\n    function buyAllAmount(ERC20 buy_gem, uint buy_amt, ERC20 pay_gem, uint max_fill_amount)\n        public\n        returns (uint fill_amt)\n    {\n        require(!locked, \"Reentrancy attempt\");\n        uint offerId;\n        while (buy_amt > 0) {                           //Meanwhile there is amount to buy\n            offerId = getBestOffer(buy_gem, pay_gem);   //Get the best offer for the token pair\n            require(offerId != 0);\n\n            // There is a chance that buy_amt is smaller than 1 wei of the other token\n            if (buy_amt * 1 ether < wdiv(offers[offerId].pay_amt, offers[offerId].buy_amt)) {\n                break;                                  //We consider that all amount is sold\n            }\n            if (buy_amt >= offers[offerId].pay_amt) {                       //If amount to buy is higher or equal than current offer amount to sell\n                fill_amt = add(fill_amt, offers[offerId].buy_amt);          //Add amount sold to acumulator\n                buy_amt = sub(buy_amt, offers[offerId].pay_amt);            //Decrease amount to buy\n                take(bytes32(offerId), uint128(offers[offerId].pay_amt));   //We take the whole offer\n            } else {                                                        //if lower\n                fill_amt = add(fill_amt, rmul(buy_amt * 10 ** 9, rdiv(offers[offerId].buy_amt, offers[offerId].pay_amt)) / 10 ** 9); //Add amount sold to acumulator\n                take(bytes32(offerId), uint128(buy_amt));                   //We take the portion of the offer that we need\n                buy_amt = 0;                                                //All amount is bought\n            }\n        }\n        require(fill_amt <= max_fill_amount);\n    }\n\n    function getBuyAmount(ERC20 buy_gem, ERC20 pay_gem, uint pay_amt) public constant returns (uint fill_amt) {\n        uint offerId = getBestOffer(buy_gem, pay_gem);           //Get best offer for the token pair\n        while (pay_amt > offers[offerId].buy_amt) {\n            fill_amt = add(fill_amt, offers[offerId].pay_amt);  //Add amount to buy accumulator\n            pay_amt = sub(pay_amt, offers[offerId].buy_amt);    //Decrease amount to pay\n            if (pay_amt > 0) {                                  //If we still need more offers\n                offerId = getWorseOffer(offerId);               //We look for the next best offer\n                require(offerId != 0);                          //Fails if there are not enough offers to complete\n            }\n        }\n        fill_amt = add(fill_amt, rmul(pay_amt * 10 ** 9, rdiv(offers[offerId].pay_amt, offers[offerId].buy_amt)) / 10 ** 9); //Add proportional amount of last offer to buy accumulator\n    }\n\n    function getPayAmount(ERC20 pay_gem, ERC20 buy_gem, uint buy_amt) public constant returns (uint fill_amt) {\n        uint offerId = getBestOffer(buy_gem, pay_gem);           //Get best offer for the token pair\n        while (buy_amt > offers[offerId].pay_amt) {\n            fill_amt = add(fill_amt, offers[offerId].buy_amt);  //Add amount to pay accumulator\n            buy_amt = sub(buy_amt, offers[offerId].pay_amt);    //Decrease amount to buy\n            if (buy_amt > 0) {                                  //If we still need more offers\n                offerId = getWorseOffer(offerId);               //We look for the next best offer\n                require(offerId != 0);                          //Fails if there are not enough offers to complete\n            }\n        }\n        fill_amt = add(fill_amt, rmul(buy_amt * 10 ** 9, rdiv(offers[offerId].buy_amt, offers[offerId].pay_amt)) / 10 ** 9); //Add proportional amount of last offer to pay accumulator\n    }\n\n    // ---- Internal Functions ---- //\n\n    function _buys(uint id, uint amount)\n        internal\n        returns (bool)\n    {\n        require(buyEnabled);\n\n        if (amount == offers[id].pay_amt && isOfferSorted(id)) {\n            //offers[id] must be removed from sorted list because all of it is bought\n            _unsort(id);\n        }\n        require(super.buy(id, amount));\n        return true;\n    }\n\n    //find the id of the next higher offer after offers[id]\n    function _find(uint id)\n        internal\n        view\n        returns (uint)\n    {\n        require( id > 0 );\n\n        address buy_gem = address(offers[id].buy_gem);\n        address pay_gem = address(offers[id].pay_gem);\n        uint top = _best[pay_gem][buy_gem];\n        uint old_top = 0;\n\n        // Find the larger-than-id order whose successor is less-than-id.\n        while (top != 0 && _isPricedLtOrEq(id, top)) {\n            old_top = top;\n            top = _rank[top].prev;\n        }\n        return old_top;\n    }\n\n    //find the id of the next higher offer after offers[id]\n    function _findpos(uint id, uint pos)\n        internal\n        view\n        returns (uint)\n    {\n        require(id > 0);\n\n        // Look for an active order.\n        while (pos != 0 && !isActive(pos)) {\n            pos = _rank[pos].prev;\n        }\n\n        if (pos == 0) {\n            //if we got to the end of list without a single active offer\n            return _find(id);\n\n        } else {\n            // if we did find a nearby active offer\n            // Walk the order book down from there...\n            if(_isPricedLtOrEq(id, pos)) {\n                uint old_pos;\n\n                // Guaranteed to run at least once because of\n                // the prior if statements.\n                while (pos != 0 && _isPricedLtOrEq(id, pos)) {\n                    old_pos = pos;\n                    pos = _rank[pos].prev;\n                }\n                return old_pos;\n\n            // ...or walk it up.\n            } else {\n                while (pos != 0 && !_isPricedLtOrEq(id, pos)) {\n                    pos = _rank[pos].next;\n                }\n                return pos;\n            }\n        }\n    }\n\n    //return true if offers[low] priced less than or equal to offers[high]\n    function _isPricedLtOrEq(\n        uint low,   //lower priced offer's id\n        uint high   //higher priced offer's id\n    )\n        internal\n        view\n        returns (bool)\n    {\n        return mul(offers[low].buy_amt, offers[high].pay_amt)\n          >= mul(offers[high].buy_amt, offers[low].pay_amt);\n    }\n\n    //these variables are global only because of solidity local variable limit\n\n    //match offers with taker offer, and execute token transactions\n    function _matcho(\n        uint t_pay_amt,    //taker sell how much\n        ERC20 t_pay_gem,   //taker sell which token\n        uint t_buy_amt,    //taker buy how much\n        ERC20 t_buy_gem,   //taker buy which token\n        uint pos,          //position id\n        bool rounding      //match \"close enough\" orders?\n    )\n        internal\n        returns (uint id)\n    {\n        uint best_maker_id;    //highest maker id\n        uint t_buy_amt_old;    //taker buy how much saved\n        uint m_buy_amt;        //maker offer wants to buy this much token\n        uint m_pay_amt;        //maker offer wants to sell this much token\n\n        // there is at least one offer stored for token pair\n        while (_best[t_buy_gem][t_pay_gem] > 0) {\n            best_maker_id = _best[t_buy_gem][t_pay_gem];\n            m_buy_amt = offers[best_maker_id].buy_amt;\n            m_pay_amt = offers[best_maker_id].pay_amt;\n\n            // Ugly hack to work around rounding errors. Based on the idea that\n            // the furthest the amounts can stray from their \"true\" values is 1.\n            // Ergo the worst case has t_pay_amt and m_pay_amt at +1 away from\n            // their \"correct\" values and m_buy_amt and t_buy_amt at -1.\n            // Since (c - 1) * (d - 1) > (a + 1) * (b + 1) is equivalent to\n            // c * d > a * b + a + b + c + d, we write...\n            if (mul(m_buy_amt, t_buy_amt) > mul(t_pay_amt, m_pay_amt) +\n                (rounding ? m_buy_amt + t_buy_amt + t_pay_amt + m_pay_amt : 0))\n            {\n                break;\n            }\n            // ^ The `rounding` parameter is a compromise borne of a couple days\n            // of discussion.\n\n            buy(best_maker_id, min(m_pay_amt, t_buy_amt));\n            t_buy_amt_old = t_buy_amt;\n            t_buy_amt = sub(t_buy_amt, min(m_pay_amt, t_buy_amt));\n            t_pay_amt = mul(t_buy_amt, t_pay_amt) / t_buy_amt_old;\n\n            if (t_pay_amt == 0 || t_buy_amt == 0) {\n                break;\n            }\n        }\n\n        if (t_buy_amt > 0 && t_pay_amt > 0) {\n            //new offer should be created\n            id = super.offer(t_pay_amt, t_pay_gem, t_buy_amt, t_buy_gem);\n            //insert offer into the sorted list\n            _sort(id, pos);\n        }\n    }\n\n    // Make a new offer without putting it in the sorted list.\n    // Takes funds from the caller into market escrow.\n    // ****Available to authorized contracts only!**********\n    // Keepers should call insert(id,pos) to put offer in the sorted list.\n    function _offeru(\n        uint pay_amt,      //maker (ask) sell how much\n        ERC20 pay_gem,     //maker (ask) sell which token\n        uint buy_amt,      //maker (ask) buy how much\n        ERC20 buy_gem      //maker (ask) buy which token\n    )\n        internal\n        returns (uint id)\n    {\n        require(_dust[pay_gem] <= pay_amt);\n        id = super.offer(pay_amt, pay_gem, buy_amt, buy_gem);\n        _near[id] = _head;\n        _head = id;\n        emit LogUnsortedOffer(id);\n    }\n\n    //put offer into the sorted list\n    function _sort(\n        uint id,    //maker (ask) id\n        uint pos    //position to insert into\n    )\n        internal\n    {\n        require(isActive(id));\n\n        address buy_gem = address(offers[id].buy_gem);\n        address pay_gem = address(offers[id].pay_gem);\n        uint prev_id;                                      //maker (ask) id\n\n        if (pos == 0 || !isOfferSorted(pos)) {\n            pos = _find(id);\n        } else {\n            pos = _findpos(id, pos);\n\n            //if user has entered a `pos` that belongs to another currency pair\n            //we start from scratch\n            if(pos != 0 && (offers[pos].pay_gem != offers[id].pay_gem\n                      || offers[pos].buy_gem != offers[id].buy_gem))\n            {\n                pos = 0;\n                pos=_find(id);\n            }\n        }\n\n\n        //requirement below is satisfied by statements above\n        //require(pos == 0 || isOfferSorted(pos));\n\n\n        if (pos != 0) {                                    //offers[id] is not the highest offer\n            //requirement below is satisfied by statements above\n            //require(_isPricedLtOrEq(id, pos));\n            prev_id = _rank[pos].prev;\n            _rank[pos].prev = id;\n            _rank[id].next = pos;\n        } else {                                           //offers[id] is the highest offer\n            prev_id = _best[pay_gem][buy_gem];\n            _best[pay_gem][buy_gem] = id;\n        }\n\n        if (prev_id != 0) {                               //if lower offer does exist\n            //requirement below is satisfied by statements above\n            //require(!_isPricedLtOrEq(id, prev_id));\n            _rank[prev_id].next = id;\n            _rank[id].prev = prev_id;\n        }\n\n        _span[pay_gem][buy_gem]++;\n        emit LogSortedOffer(id);\n    }\n\n    // Remove offer from the sorted list (does not cancel offer)\n    function _unsort(\n        uint id    //id of maker (ask) offer to remove from sorted list\n    )\n        internal\n        returns (bool)\n    {\n        address buy_gem = address(offers[id].buy_gem);\n        address pay_gem = address(offers[id].pay_gem);\n        require(_span[pay_gem][buy_gem] > 0);\n\n        require(_rank[id].delb == 0 &&                    //assert id is in the sorted list\n                 isOfferSorted(id));\n\n        if (id != _best[pay_gem][buy_gem]) {              // offers[id] is not the highest offer\n            require(_rank[_rank[id].next].prev == id);\n            _rank[_rank[id].next].prev = _rank[id].prev;\n        } else {                                          //offers[id] is the highest offer\n            _best[pay_gem][buy_gem] = _rank[id].prev;\n        }\n\n        if (_rank[id].prev != 0) {                        //offers[id] is not the lowest offer\n            require(_rank[_rank[id].prev].next == id);\n            _rank[_rank[id].prev].next = _rank[id].next;\n        }\n\n        _span[pay_gem][buy_gem]--;\n        _rank[id].delb = block.number;                    //mark _rank[id] for deletion\n        return true;\n    }\n\n    //Hide offer from the unsorted order book (does not cancel offer)\n    function _hide(\n        uint id     //id of maker offer to remove from unsorted list\n    )\n        internal\n        returns (bool)\n    {\n        uint uid = _head;               //id of an offer in unsorted offers list\n        uint pre = uid;                 //id of previous offer in unsorted offers list\n\n        require(!isOfferSorted(id));    //make sure offer id is not in sorted offers list\n\n        if (_head == id) {              //check if offer is first offer in unsorted offers list\n            _head = _near[id];          //set head to new first unsorted offer\n            _near[id] = 0;              //delete order from unsorted order list\n            return true;\n        }\n        while (uid > 0 && uid != id) {  //find offer in unsorted order list\n            pre = uid;\n            uid = _near[uid];\n        }\n        if (uid != id) {                //did not find offer id in unsorted offers list\n            return false;\n        }\n        _near[pre] = _near[id];         //set previous unsorted offer to point to offer after offer id\n        _near[id] = 0;                  //delete order from unsorted order list\n        return true;\n    }\n}\n",
  "sourcePath": "/Users/brendanchou/dydx/protocol/contracts/external/Maker/Oasis/MatchingMarket.sol",
  "compiler": {
    "name": "solc",
    "version": "0.4.24+commit.e67f0147.Emscripten.clang"
  },
  "schemaVersion": "2.0.1",
  "updatedAt": "2018-11-29T00:35:02.375Z"
}